S01700004763634170706C69636174696F6E352E7372656357
S214400000A0080020510140004D0140004D01400035
S2144000104D0140004D0140004D01400000000000F1
S2144000200000000000000000000000004D014000FD
S2144000304D014000000000004D0140004D014000D1
S2144000404D0140004D0140004D0140004D01400033
S2144000504D0140004D0140004D014000010440006C
S214400060000000004D0140004D014000000000002F
S2144000704D014000000000003D0440004D0140009E
S2144000804D0140004D0140004D0140004D014000F3
S2144000904D014000C10340004D0140004D0140006D
S2144000A0000000000000000000000000000000000B
S2144000B000000000000000004D0140004D014000DF
S2144000C04D0140004D0140004D0140004D014000B3
S2144000D0990340004D014000000000004D014000E3
S2144000E000000000000000000000000000000000CB
S2144000F04D0140004D01400010B5054C237833B902
S214400100044B13B10448AFF300800123237010BDA5
S21440011068040020000000009807400008B5064B21
S2144001201BB106480649AFF300800648036813B182
S214400130054B03B1984708BD0000000098074000F3
S2144001406C0400209807400000000000FEE700BF57
S21440015012491348814208B509D0124B984206D23C
S214400160C243134423F0030204320F4B98470F4810
S2144001700F4B984207D2C243134423F00302043283
S21440018000210C4B98470C490C4A0D4B21F07F013F
S214400190916098470B4B9847FEE700BF9807400092
S2144001A00000002068040020AD04400068040020E1
S2144001B09C040020E10540000000400000ED00E007
S2144001C05D0440004D024000194B1A4A4FF004218E
S2144001D01960136AD80104D4174B1362936ED9077B
S2144001E0FCD51449154B0B628B6E124ADB03FBD5CC
S2144001F0136B23F0030343F001031363936E0D491F
S2144002001807FBD50E4B8B628B6E0A4A9B07FBD5B5
S2144002101123136311468B6E064A1807FBD512232B
S2144002201363936E1B07FCD5064B074A1A6070474C
S214400230000A0E4000040E4009083700090837013E
S214400240013F0F200000002000D8B8052DE9F84FE8
S214400250464B474DDFF82C81DFF82CA1DFF82C9178
S214400260DFF82CB19847DFF82CE1424A4249434B2D
S21440027043484FF480562E614FF48067C2F800A082
S214400280CEF800104FF480444FF4005C40F2FF3E3E
S2144002904FF0F00A0F63FF224E630C63C1F830C084
S2144002A0C1F81090C1F8A0E04FF40019C8F814A1A6
S2144002B04FF0800A4FF010082F61CBF800301D46F3
S2144002C01A61C3F8A020C0F880900B46C0F880A002
S2144002D04FF47979C0F880404FF40062C0F88480CB
S2144002E00F634E630C63C1F830C0C1F834E04FF47E
S2144002F080414FF4005059630021586300204F1C42
S21440030040F256284FF42E7C40F2FF3E814208BF12
S2144003103846861C441C8C4208BF344604F1020A08
S214400320661C8E4208BF564641EA001A701C41EAD7
S214400330041B0F2841EA06145A63C3F838901A6320
S214400340C5F838A05A63C3F838801A63C5F838B081
S2144003505A63C3F838C01A63AC635A63C3F834E0D0
S2144003601A63D3DD022F3946C8D1C0E7C901400021
S21440037000040E409004002000140E4000100E4072
S21440038000E100E000020E40007C0001FF7F00011B
S2144003909804002088040020074B1B68DA69D207BF
S2144003A008D5064A1078013000F00F000021107082
S2144003B0C3F80812704700BF0400002084040020E1
S2144003C00B4A0C4953780968D3F1010338BF002320
S2144003D053700A6A2BB1084B084A1B6812681A63A6
S2144003E07047054B054A1B6812685A63704700BF42
S2144003F0840400208C040020880400209004002000
S2144004000B4A5369D90430B410D50A4D1446691EB8
S21440041005F1C70053699B07FCD511F8013FE3611E
S2144004208142F7D1044BC8221D605A6030BC7047E9
S21440043000060E400800002000070E40044B5B6993
S2144004401B0504D5034B044A9A601422DA607047B1
S21440045000000A4000010A402800002070B50F4EF8
S2144004600F4D761BB61007D0043D0024013455F8D6
S214400470043F9847A642F9D10A4E0B4D761B00F032
S21440048079F9B61008D0043D0024013455F8043FED
S2144004909847A642F9D170BD70BD00BF80074000A6
S2144004A0800740008807400080074000844641EAB5
S2144004B0000313F003036DD1403A41D351F8043B97
S2144004C040F8043B51F8043B40F8043B51F8043BE9
S2144004D040F8043B51F8043B40F8043B51F8043BD9
S2144004E040F8043B51F8043B40F8043B51F8043BC9
S2144004F040F8043B51F8043B40F8043B51F8043BB9
S21440050040F8043B51F8043B40F8043B51F8043BA8
S21440051040F8043B51F8043B40F8043B51F8043B98
S21440052040F8043B51F8043B40F8043B51F8043B88
S21440053040F8043B51F8043B40F8043B403ABDD2F7
S214400540303211D351F8043B40F8043B51F8043B99
S21440055040F8043B51F8043B40F8043B51F8043B58
S21440056040F8043B103AEDD20C3205D351F8043B28
S21440057040F8043B043AF9D2043208D0D2071CBFF4
S21440058011F8013B00F8013B01D30B88038060461D
S214400590704700BF082A13D38B078DD010F0030393
S2144005A08AD0C3F10403D21ADB071CBF11F8013B03
S2144005B000F8013B80D331F8023B20F8023B7BE752
S2144005C0043AD9D3013A11F8013B00F8013BF9D27D
S2144005D00B7803704B7843708B7883706046704717
S2144005E0F0B4840743D0541E002A3ED0CDB2034612
S2144005F003E0621E002C38D0144603F8015B9A07CD
S214400600F7D1032C2AD9CDB245EA05250F2C45EA69
S214400610054515D9A4F110073F0903F1100606EB6E
S21440062007161A46156055609560D5601032B2427E
S214400630F8D104F00F040137032C03EB07130DD950
S2144006401E462246043A032A46F8045BFAD8221F7E
S21440065022F003020432134404F003042CB1C9B25E
S2144006601C4403F8011BA342FBD1F0BC7047144660
S2144006700346C6E7024B13B1024800F005B8704780
S2144006800000000095064000014600200246034652
S21440069000F018B838B5094D094C641BA41018BFB3
S2144006A005EB840505D0013C55F8043D9847002CE1
S2144006B0F9D1BDE8384000F067B800BF9407400065
S2144006C098074000F0B5274C2668D6F8484185B0D4
S2144006D00746002C41D065681F2D1EDD224818B9FC
S2144006E04FF0FF3005B0F0BD4FF4C8700391029252
S2144006F00193AFF300800399029A019B04460028B9
S214400700EED0D6F848512560002060600546C6F811
S2144007104841C4F88801C4F88C013FB9AB1C00209E
S2144007200135656044F8231005B0F0BD04EB850044
S2144007304FF0010CC0F88820D4F888610CFA05F216
S2144007401643022FC4F88861C0F80831E6D1D4F8C1
S2144007508C311A43C4F88C21E0E706F5A674C6F837
S2144007604841B8E770074000000000004300000022
S21440077040000020F8B500BFF8BC08BC9E46704755
S214400780750640001D014000F8B500BFF8BC08BC27
S20C4007909E467047F900400048
S21440079800093D0000000040952B15952B15952B1C
S2144007A815952B15952B15952B15952B15952B15BE
S2144007B8952B15952B15000037000000000000000B
S2144007C800000000000000000000000000000000DC
S2144007D8000000002C03002094030020FC030020A7
S2144007E800000000000000000000000000000000BC
S2144007F800000000000000000000000000000000AC
S214400808000000006C0740000000000000000000E8
S214400818000000000000000000000000000000008B
S214400828000000000000000000000000000000007B
S214400838000000000000000000000000000000006B
S214400848000000000000000000000000000000005B
S214400858000000000000000000000000000000004B
S214400868000000000000000000000000000000003B
S214400878000000000000000001000000000000002A
S2144008880E33CDAB34126DE6ECDE05000B000000EF
S214400898000000000000000000000000000000000B
S2144008A800000000000000000000000000000000FB
S2144008B800000000000000000000000000000000EB
S2144008C800000000000000000000000000000000DB
S804400000BB
