:020000040040BA
:10000000D07F0020510140004D0140004D014000D3
:100010004D0140004D0140004D0140000000000036
:100020000000000000000000000000004D01400042
:100030004D014000000000004D0140004D01400016
:100040004D0140004D0140004D0140004D01400078
:100050004D0140004D0140004D0140005105400060
:10006000000000004D0140004D0140000000000074
:100070004D014000000000008D0540004D01400092
:100080004D0140004D0140004D0140004D01400038
:100090004D0140009D0340004D0140004D014000D6
:1000A0000000000000000000000000000000000050
:1000B00000000000000000004D0140004D01400024
:1000C0004D0140004D0140004D0140004D014000F8
:1000D000750340004D014000000000004D0140004C
:1000E0000000000000000000000000000000000010
:1000F0004D0140004D01400010B5054C237833B947
:10010000044B13B10448AFF300800123237010BDEA
:10011000907B002000000000E8E8410008B5064B95
:100120001BB106480649AFF300800648036813B1C7
:10013000054B03B1984708BD00000000E8E8410006
:10014000947B0020E8E8410000000000FEE700BFCB
:1001500012491348814208B509D0124B984206D281
:10016000C243134423F0030204320F4B98470F4855
:100170000F4B984207D2C243134423F003020432C8
:1001800000210C4B98470C490C4A0D4B21F07F0184
:10019000916098470B4B9847FEE700BFE8E84100A5
:1001A00000000020907B0020FD054000907B002097
:1001B000CC7B0020310740000000400000ED00E053
:1001C000AD0540004D024000194B1A4A4FF0042182
:1001D0001960136AD80104D4174B1362936ED907C0
:1001E000FCD51449154B0B628B6E124ADB03FBD511
:1001F000136B23F0030343F001031363936E0D4964
:100200001807FBD50E4B8B628B6E0A4A9B07FBD5FA
:100210001123136311468B6E064A1807FBD5122370
:100220001363936E1B07FCD5064B074A1A60704791
:10023000000A0E4000040E40090837000908370183
:10024000013F0F200000002000D8B8052DE9F84F2D
:100250003A4B3B4DDFF80081DFF80091DFF800B149
:10026000384CDFF800A19847DFF8FCE03648374B00
:10027000DFF8F8C0364A37494FF48056CEF81060A0
:100280004FF48067C5F8008003604FF400554FF4C9
:1002900080401F6340F2FF385E6318631D63C3F83C
:1002A00010B04FF0F00BC3F8A080C9F814B14FF0B4
:1002B000FF09CEF81070C4F800C0CCF810904FF4CD
:1002C0000014CCF8A0904FF002094FF0FF3CCEF89C
:1002D0001040CAF800204FF0100EC2F8009041F60E
:1002E000856AC2F828C04FF00509D2F820B05060E6
:1002F000C2F824E0C2F81CA0C2F80090DFF87090A9
:100300004FF4004C4FF0800A0022C9F804C0C1F835
:100310008040C1F880A0C1F88000C1F884E0C1F835
:10032000804181F815230C601F635E6318631D63B1
:10033000C3F8348058635D63FEE700BFC901400025
:10034000C07B0020C87B0020B87B002000140E403A
:100350000000094000E100E0007C000100020E40C6
:10036000FF7F0001BC7B002000040E4000100E4007
:1003700050180E40074B1B68DA69D20708D5064AA9
:100380001078013000F00F0000211070C3F808123F
:10039000704700BF04000020AC7B00202DE9F00F67
:1003A000634B644A1C685268246A634B634864491F
:1003B0001B6886B000250592624A059C126802926D
:1003C00004EB84021201541E114400EB4404049116
:1003D000039429464FF40062039EDDF8108036F83E
:1003E00002CFDFF868B118F8050003964C1CE4B2A0
:1003F0000231DC4426095FFA81F804F00F018E42D5
:100400000CEB000108BF444609799CF804709CF885
:1004100005905A63A1F1100104F101004FEA181888
:1004200018BFB046C0B201EBC1064FEA101A00F087
:100430000F0B04F1020C06EB4616DA455FFA8CFC52
:100440000E44A7F18007A9F1800908BF6046BFB23A
:10045000CDF80480B6B21FFA89F940F299186FF00E
:10046000630B4FEA1C1C18BFD44608FB096A0BFB40
:1004700007666FF0CF0808FB09694FF41A7808FB8C
:10048000076B411CDDF804802401C9B2E4B20E09F7
:10049000871C44EA080401F00F084645FFB208BF74
:1004A00039464FEA171718BF37460E01F6B200015A
:1004B00037430AF1800A029E09F18009C0B240EA7E
:1004C0000C000BF1800B01354FEAAA1A4FEAA9196B
:1004D000C3F838A04FEAAB1B1A63502DB4635A63BC
:1004E000C3F838901A63B0634FF000005A63C3F842
:1004F00038B01A63B7635A6398631A637FF46CAFBA
:10050000059C114B0B4A611C0B40834204DB53607A
:1005100006B0BDE8F00F7047013B6FEAC3536FEAC6
:10052000D3530133536006B0BDE8F00F704700BFEE
:10053000BC7B0020AC7B0020B87B0020BC084000C6
:10054000BC484100C87B0020FF010080040000205F
:100550000B4A5369D90430B410D50A4D1446691EAC
:1005600005F1C70053699B07FCD511F8013FE36112
:100570008142F7D1044BC8221D605A6030BC7047DD
:1005800000060E403077002000070E40044B5B69E8
:100590001B0504D5034B044A9A601422DA607047A5
:1005A00000000A4000010A405077002070B50F4E4D
:1005B0000F4D761BB61007D0043D0024013455F8CA
:1005C000043F9847A642F9D10A4E0B4D761B1EF008
:1005D00079F9B61008D0043D0024013455F8043FE1
:1005E0009847A642F9D170BD70BD00BFD0E8410068
:1005F000D0E84100D8E84100D0E84100844641EA13
:10060000000313F003036DD1403A41D351F8043B8A
:1006100040F8043B51F8043B40F8043B51F8043BDC
:1006200040F8043B51F8043B40F8043B51F8043BCC
:1006300040F8043B51F8043B40F8043B51F8043BBC
:1006400040F8043B51F8043B40F8043B51F8043BAC
:1006500040F8043B51F8043B40F8043B51F8043B9C
:1006600040F8043B51F8043B40F8043B51F8043B8C
:1006700040F8043B51F8043B40F8043B51F8043B7C
:1006800040F8043B51F8043B40F8043B403ABDD2EB
:10069000303211D351F8043B40F8043B51F8043B8D
:1006A00040F8043B51F8043B40F8043B51F8043B4C
:1006B00040F8043B103AEDD20C3205D351F8043B1C
:1006C00040F8043B043AF9D2043208D0D2071CBFE8
:1006D00011F8013B00F8013B01D30B880380604611
:1006E000704700BF082A13D38B078DD010F0030387
:1006F0008AD0C3F10403D21ADB071CBF11F8013BF7
:1007000000F8013B80D331F8023B20F8023B7BE745
:10071000043AD9D3013A11F8013B00F8013BF9D270
:100720000B7803704B7843708B788370604670470A
:10073000F0B4840743D0541E002A3ED0CDB2034605
:1007400003E0621E002C38D0144603F8015B9A07C0
:10075000F7D1032C2AD9CDB245EA05250F2C45EA5D
:10076000054515D9A4F110073F0903F1100606EB62
:1007700007161A46156055609560D5601032B24272
:10078000F8D104F00F040137032C03EB07130DD944
:100790001E462246043A032A46F8045BFAD8221F72
:1007A00022F003020432134404F003042CB1C9B252
:1007B0001C4403F8011BA342FBD1F0BC7047144654
:1007C0000346C6E7024B13B1024800F005B8704774
:1007D00000000000E50740000146002002460346F5
:1007E00000F018B838B5094D094C641BA41018BFA7
:1007F00005EB840505D0013C55F8043D9847002CD5
:10080000F9D1BDE838401EF067B800BFE4E8410008
:10081000E8E84100F0B5274C2668D6F8484185B095
:100820000746002C41D065681F2D1EDD224818B9EF
:100830004FF0FF3005B0F0BD4FF4C8700391029245
:100840000193AFF300800399029A019B04460028AC
:10085000EED0D6F848512560002060600546C6F805
:100860004841C4F88801C4F88C013FB9AB1C002092
:100870000135656044F8231005B0F0BD04EB850038
:100880004FF0010CC0F88820D4F888610CFA05F20A
:100890001643022FC4F88861C0F80831E6D1D4F8B5
:1008A0008C311A43C4F88C21E0E706F5A674C6F82B
:1008B0004841B8E7C0E84100000000009E76967508
:1008C0004674AE72E670FA6EEA6CB66A5E68EE6501
:1008D0006663BA60025E265B3E584A553E52264F1A
:1008E000024CC6487E452A42CA3E5E3BE6376E341D
:1008F000DE304E2DBE2916266E22C61E1E1B761712
:10090000B613F60F360C7608B604F600F000B00405
:100910007008300CF00FB0137017181BC01E68223F
:100920001026B829482DD8306834E037583BC43EEB
:1009300024427845C048FC4B204F38524455385823
:10094000205BFC5DB4606063E8655868B06AE46C85
:10095000F46EE070A8724074907598762676FA74FA
:100960007A73CA71F66FFE6DD66B8A693267AA64B4
:1009700016625E5F9A5CB259CA56CA53B2509A4D1B
:100980006A4A2247DA437A401A3DA2392A36A63209
:10099000162F862BEA2742249A20F21C4A19961514
:1009A000D611160E560A9606D602F000F000D002B6
:1009B0009006500A100ED01190154419EC1C94208A
:1009C0003C24E427802B102FA03224369C39143D80
:1009D0007440D4431C47644A944DAC50C453C4562D
:1009E000AC59945C585F1062A4642C678469D06B26
:1009F000F86DF06FC4717473F47420762676FA740F
:100A00007A73CA71F66FFE6DD66B8A693267AA6413
:100A100016625E5F9A5CB259CA56CA53B2509A4D7A
:100A20006A4A2247DA437A401A3DA2392A36A63268
:100A3000162F862BEA2742249A20F21C4A19961573
:100A4000D611160E560A9606D602F000F000D00215
:100A50009006500A100ED01190154419EC1C9420E9
:100A60003C24E427802B102FA03224369C39143DDF
:100A70007440D4431C47584A884DAC50B853B856BC
:100A8000AC59885C585F0462A46420678469C46BB5
:100A9000EC6DE46FC4717473E87420763276FA7486
:100AA0008673D671F66FFE6DD66B96693267B66443
:100AB00016626A5F9A5CB259CA56CA53B2509A4DCE
:100AC0006A4A2247DA437A401A3DA2392A36A632C8
:100AD000162F862BEA2742249A20F21C4A199615D3
:100AE000D611160E560A9606D602F000F000D00275
:100AF0009006500A100ED01190154419EC1C942049
:100B00003C24E427802B102F943224369C39083D56
:100B10006840C8431C47584A884DAC50B853B85633
:100B2000AC59885C585F0462A46420678469C46B14
:100B3000EC6DE46FC4717473E87420763276FA74E5
:100B40008673D671F66FFE6DD66B96693267B664A2
:100B500016626A5F9A5CBE59CA56CA53BE509A4D15
:100B60006A4A2E47DA437A401A3DA2392A36A6321B
:100B7000162F862BEA2742249A20F21C4A19961532
:100B8000D611160E560A9606D602F000F000D002D4
:100B90009006500A100ED01190154419EC1C9420A8
:100BA0003C24E427742B042F943224369C39083DCE
:100BB0006840C8431C47584A884DAC50B853B85693
:100BC000AC59885C585F0462A46420677869C46B80
:100BD000EC6DE46FB8716873E8741476327606755C
:100BE0008673D67102700A6EE26B96693267B664DC
:100BF00016626A5F9A5CBE59CA56CA53BE509A4D75
:100C00006A4A2E47DA437A401A3DAE392A36A6326E
:100C1000162F862BEA2742249A20F21C4A19961591
:100C2000D611160E560A9606D602F000F000D00233
:100C30009006500A100ED01190154419EC1C942007
:100C40003C24E427742B042F943224369C39083D2D
:100C50006840C8431C47584A884DAC50B853B856F2
:100C6000A059885C4C5F0462986420677869C46B03
:100C7000EC6DE46FB8716873E874147632760675BB
:100C80008673D67102700A6EE26B96693E67B6642F
:100C900022626A5FA65CBE59CA56CA53BE509A4DBC
:100CA0006A4A2E47DA437A401A3DAE393636A632C2
:100CB000162F862BEA2742249A20F21C4A199615F1
:100CC000D611160E560A9606D602F000F000D00293
:100CD0009006500A100ED01190154419EC1C942067
:100CE0003C24E427742B042F943224369C39083D8D
:100CF0006840C8431C47584A884DA050B853B8565E
:100D0000A059885C4C5F0462986420677869C46B62
:100D1000E06DD86FB8716873DC7414763E76067532
:100D20009273E27102700A6EE26B96693E67B66476
:100D300022626A5FA65CBE59D656D653BE509A4D03
:100D40006A4A2E47DA437A401A3DAE393636A63221
:100D5000162F862BEA2742249A20F21C4A19961550
:100D6000D611160E560A9606D602F000F000D002F2
:100D70009006500A100ED01184154419EC1C9420D2
:100D80003C24E427742B042F943224369C39083DEC
:100D90006840C8431047584A884DA050B853B856C9
:100DA000A059885C4C5F0462986414677869B86BDA
:100DB000E06DD86FB8716873DC7414763E76067592
:100DC0009273E27102700A6EE26BA2693E67B664CA
:100DD00022626A5FA65CBE59D656D653BE50A64D57
:100DE000764A2E47DA437A401A3DAE393636A63275
:100DF000162F862BF6274E249A20F21C4A19961598
:100E0000D611160E560A9606D602F000F000D00251
:100E10009006500A100ED01184154419EC1C942031
:100E20003C24E427742B042F943224369039083D57
:100E30006840C8431047584A884DA050B853B85628
:100E4000A0597C5C4C5FF861986414677869B86B52
:100E5000E06DD86FAC715C73DC7408763E76127509
:100E60009273E27102700A6EE26BA2693E67C2641D
:100E70002262765FA65CBE59D656D653BE50A64DAA
:100E8000764A2E47E64386401A3DAE393636A632BC
:100E9000162F862BF6274E24A620F21C4A199615EB
:100EA000D611160E560A9606D602F000F000D002B1
:100EB0009006500A100EC41184154419EC1C94209D
:100EC0003C24E427742B042F943218369039083DC3
:100ED0006840C8431047584A884DA050AC53AC56A0
:100EE000A0597C5C4C5FF861986414676C69B86BBE
:100EF000E06DD86FAC715C73DC7408763E76127569
:100F00009273E2710E70166EEE6BA2693E67C26458
:100F10002262765FA65CCA59D656D653BE50A64DFD
:100F2000764A2E47E6438640263DAE393636A6320F
:100F3000162F862BF6274E24A620FE1C4A1996153E
:100F4000D611160E560A9606D602F000F000D00210
:100F50009006500A100EC41184154419EC1C9420FC
:100F60003C24E427742B042F943218369039083D22
:100F70006840C84310474C4A7C4DA050AC53AC5617
:100F8000A0597C5C4C5FF8618C6414676C69B86B29
:100F9000E06DD86FAC715C73D07408764A761275C8
:100FA0009E73E2710E70166EEE6BA2694A67C264A0
:100FB0002262765FA65CCA59D656D653CA50A64D51
:100FC000764A2E47E6438640263DAE393636A6326F
:100FD000162F862BF6274E24A620FE1C5619961592
:100FE000D611160E560A9606D602F000F000D00270
:100FF0009006500A040EC41184154419EC1C942068
:101000003C24E427742B042F943218369039083D81
:101010006840BC4310474C4A7C4DA050AC53AC5682
:10102000A0597C5C405FF8618C6414676C69B86B94
:10103000D46DCC6FAC715C73D07408764A7612753F
:101040009E73EE710E70166EEE6BA2694A67C264F3
:101050002E62765FB25CCA59D656D653CA50A64D98
:10106000764A3A47E6438640263DAE393636B232B6
:10107000162F862BF6274E24A620FE1C56199615F1
:10108000D611160E560A9606D602F000F000D002CF
:101090009006500A040EC41184154419EC1C9420C7
:1010A0003C24D827742B042F943218369039083DED
:1010B0005C40BC4310474C4A7C4DA050AC53AC56EE
:1010C00094597C5C405FF8618C6408676C69AC6B18
:1010D000D46DCC6FAC715C73D074FC75BA751E7531
:1010E0009E73EE710E70166EEE6BAE694A67C26447
:1010F0002E62765FB25CCA59E256D653CA50A64DEC
:10110000764A3A47E6438640263DAE393636B23215
:10111000222F862BF6274E24A620FE1C5619961544
:10112000D611160E560A9606D602F000F000D0022E
:101130009006500A040EC41184154419EC1C942026
:101140003024D827742B042F943218369039FC3C65
:101150005C40BC4310474C4A7C4D9450AC53AC5659
:1011600094597C5C405FEC618C6408676C69AC6B83
:10117000D46DCC6FA0715073D074FC75BA756A745D
:10118000D2720A711E6F0E6DEE6BAE694A67CE6445
:101190002E62765FB25CCA59E256E253CA50A64D3F
:1011A000764A3A47E6438640263DAE393636B23275
:1011B000222F922BF6274E24A620FE1C5619961598
:1011C000D611160E560A9606D602F000F000D0028E
:1011D0009006440A040EC41184154419EC1C88209E
:1011E0003024D827742B042F943218369039FC3CC5
:1011F0005C40BC4310474C4A7C4D9450AC53AC56B9
:101200009459705C405FEC618C6408676C69AC6BEE
:10121000C06CD06EBC7084721C746C75C6756A74B8
:10122000D2720A711E6F0E6DDA6A826812667E6370
:101230002E62825FB25CCA59E256E253CA50B24D86
:10124000764A3A47E6438640263DBA393636B232C8
:10125000222F922BF6274E24A620FE1C56199615F7
:10126000D611160E560A9606D602F000F000D002ED
:101270009006440A040EC41184154419EC1C8820FD
:101280003024D827742B042F883218369039FC3C30
:101290005C40BC4304474C4A7C4D9450AC53A05630
:1012A0009459705C405FEC613C63C46534688C6A3F
:1012B000C06CD06EB070787210746C75C6756A743C
:1012C000D2720A711E6F0E6DDA6A826812667E63D0
:1012D000DE601A5E4A5B6258E256E253CA50B24D73
:1012E000824A3A47E6438640263DBA394236B23210
:1012F000222F922BF6274E24A620FE1C5619961557
:10130000D611160E560A9606D602F000F000D0024C
:101310009006440A040EC41184154419E01C882068
:101320003024D827742BF82E883218369039FC3C9C
:101330005C40BC4304474C4A7C4D9450A053A0569B
:101340009459085BD85D90603C63C46534688C6ACE
:10135000C06CD06EB070787210746075C6756A74A7
:10136000D2720A712A6F1A6DDA6A826812668A630B
:10137000DE601A5E4A5B6258625562523E4FB24D61
:10138000824A3A47F2438640263DBA394236B23263
:10139000222F922BF6274E24A620FE1C56199615B6
:1013A000D611160E560A9606D602F000F000D002AC
:1013B0009006440A040EC41184154419E01C8820C8
:1013C0003024D827742BF82E883218369039FC3CFC
:1013D0005C40BC4304474C4A704D94502052205509
:1013E0002058FC5AD85D90603C63C4653468806ABC
:1013F000C06CD06EB070787210746075C6757674FB
:10140000DE720A712A6F1A6DDA6A8E6812668A6352
:10141000DE60265E4A5B6258625562524A4F1A4C41
:10142000DE483A47F2439240263DBA394236B2325C
:10143000222F922BF6274E24A620FE1C5619961515
:10144000D611160E560A9606D602F000F000D0020B
:101450009006440A040EC41184153819E01C882033
:101460003024D827682BF82E883218368439FC3C73
:101470005C40BC430447A848D84B084F2052205535
:101480001458FC5AD85D90603063C4653468806A33
:10149000C06CC46EB0707872107460752A75AA73CF
:1014A000FA7116712A6F1A6DDA6A8E681E668A637F
:1014B000DE60265E4A5B6258625562524A4F1A4CA1
:1014C000DE4896454242E23E323DBA394236B232B9
:1014D000222F922BF6274E24A620FE1C5619961575
:1014E000D611160E560A9606D602F000F000D0026B
:1014F0009006440A040EC41184153819E01C882093
:101500003024D827682BF82E883218368439FC3CD2
:101510005C400C426045A848D84B084F14522055F7
:101520001458FC5AD85D90603063C4653468806A92
:10153000B46CC46EB07094714473B8742A75B67389
:10154000067226702E6E066CBA698E681E668A63F5
:10155000EA60265E4A5B62586E5562524A4F1A4CE8
:10156000EA4896454242E23E763BBA394236B232CA
:10157000222F922BF6274E24A620FE1C56199615D4
:10158000D611160E560A9606D602F000F000D002CA
:101590009006440A040EC41184153819E01C8820F2
:1015A0003024D827682BF82E88320C368439403BFB
:1015B000AC3E00426045A848D84BFC4E1452205522
:1015C0001458FC5ACC5D90603063B8652868806A16
:1015D000A06BBC6DB46F94714473B8743675B673F8
:1015E000067226702E6E066CBA696267DA643A6219
:1015F000EA60265E565B62586E5562524A4F1A4C3C
:10160000EA48A2454242E23E763BFE377A34B232A5
:10161000222F922BF6274E24A620FE1C5619961533
:10162000D611160E560A9606D602F000F000D00229
:101630008406440A040EC41184153819E01C88205D
:101640003024D827682BF82E88320C36C837403B18
:10165000A03E00426045A848D84BFC4E145220558D
:101660001458FC5ACC5D906030637464FC66546915
:10167000946BBC6DB46F94713873B8743675B6736F
:10168000067226702E6E066CBA696267DA6446626C
:101690008E5FBE5C565B6E586E5562524A4F264C4A
:1016A000EA48A2454242E23E763BFE378634EA30C3
:1016B000222F922B02284E24A620FE1C5619961586
:1016C000D611160E560A9606D602F000F000D00289
:1016D0008406440A040EC41184153819E01C8820BD
:1016E0003024D827682BF82EC0305034C837403B00
:1016F000A03E004260459C48D84BFC4E1452145505
:101700001458FC5A645C285FE0617464F0665469A4
:10171000946BBC6DB46F88713873B8748274EA725C
:10172000067232702E6E066CC6696267DA644662B3
:101730008E5FBE5CE259EE56EE5362524A4F264C23
:10174000EA48A2454242E23E763BFE378634F63016
:101750005A2D922B02284E24A620FE1C56199615AF
:10176000D611160E560A9606D602F000F000D002E8
:101770008406440A040EC41184153819E01C88201C
:101780003024D827682B302DC0305034C837403B28
:10179000A03E004254459C48D84BFC4E1452145570
:1017A00094567C59645C285FE0617464F066546907
:1017B000946BBC6DB46F88716072F8738274EA7256
:1017C0002271366F266D126CC6696267E6644662E6
:1017D0008E5FCA5CE259EE56EE53E250BE4D264C87
:1017E000EA48A2454242E23E823BFE378634F6306A
:1017F0005A2DCA2902285A24A620FE1C56199615CD
:10180000D611160E560A9606D602F000F000D00247
:101810008406440A040EC41184153819E01C88207B
:101820003024D827A029302DC0305034C837403B51
:10183000A03E004254459C48D84BFC4E88509453DF
:1018400094567C59645C285FD4617464F06648697E
:10185000946BA86CB86E98706072F8738274EA72B8
:101860002271426F266DF26A9A682A66E6644662C1
:101870008E5FCA5CE259FA56EE53E250BE4D8E4A74
:101880004647A2454242E23E823BFE378634F6306E
:10189000662DCA292E265A24A620FE1C56199615F6
:1018A000D611160E560A9606D602F000F000D002A7
:1018B0008406440A040EC41184153819E01C8820DB
:1018C00030240426A029302DC0304434C837403B92
:1018D000A03E004254459C48344A644D885094537D
:1018E00094567C59645C285FD4617464F0661C680B
:1018F000746AA86CB86E98706072F8738E74F67221
:101900002271426F326DF26A9A682A669663F660B7
:101910009A5FCA5CE259FA56EE53E250BE4D8E4AC7
:101920004647FE434E42E23E823B0A388634F6305A
:10193000662DCA292E268622A620FE1C5619A2151F
:10194000D611160E560A9606D602F000F000D00206
:101950008406440A040EC41184153819E01C88203A
:101960005C220426A029302DC0304434C837403BC7
:10197000A03E0042B043F846344A644D7C50945334
:1019800094567C59585C285F84602463AC651C685D
:10199000686AA86CB86E98706072F873C27312723D
:1019A0003E70426F326DF26A9A682A66A263F660F0
:1019B000325E625BE259FA56FA53E250BE4D8E4AED
:1019C0004647FE439E403E3D823B0A388634F63011
:1019D000662DD6292E268622DE1EFE1C5619A2153D
:1019E000D611160E560A9606D602F000F000D00266
:1019F0008406440A040EC41184153819E01C88209A
:101A00005C22F825A029302DB4304434C837343B4B
:101A1000A03E5040A443F846344A644D7C50945351
:101A200094567C59F05AC05D78602463AC651C689C
:101A3000686AA86CAC6EA86F7C712C73CE7312723E
:101A40003E70466E126CD269A6682A66A263F66082
:101A5000325E625B7A587A55FA53E250BE4D8E4A36
:101A60005247FE439E403E3DC6390A388634F63022
:101A7000662DD6292E268622DE1EFE1C5619A2159C
:101A8000D611160E560A9606D602F000F000D002C5
:101A90008406440A040EC41184153819E01CB41ECF
:101AA0005C22F825A029302DB4304434C837343BAB
:101AB000F03C5040A443F846344A644D7C50945363
:101AC00008550858F05AC05D78602463AC651C68FE
:101AD000686A886BB06DA86F7C712C73CE731E72B0
:101AE0003E70466E1E6CD2696E67F264A263F66049
:101AF0003E5E625B7A587A556E52564FCA4D8E4A98
:101B00005247FE439E403E3DC6394E368634F6303F
:101B1000662DD6292E268622DE1E2A1B5619A215D0
:101B2000D611160E560A9606D602F000F000D00224
:101B30008406440A040EC411841538190C1BB41E03
:101B40005C22F825A029242DB4304434003678399D
:101B5000F03C4440A443F846344A644DF04E0852E9
:101B600008550858E45AC05D786018636864E466F4
:101B70003C69886BA46D9C6F7C71207302732E711D
:101B80004E6F466E1E6CD2697A67F26452629A5F3B
:101B90003E5E625B7A587A557A52564F324CF6481E
:101BA0005247FE439E403E3DC6394E36BE32F63069
:101BB000662DD6292E268622DE1E361B8217A215FA
:101BC000D611160E560A9606D602F000F000D00284
:101BD0008406440A040EC411841538190C1BB41E63
:101BE0005022F825A029242DB4307C3200367839D3
:101BF000F03C4440A443EC46344ACC4BF04E0852EF
:101C00000855FC57E45AC05D1C5FC8615C64E4661B
:101C10003C697C6BA46D9C6F8C70547202733A713A
:101C20004E6F3E6DFE6AD2697A67F2645262A65FB9
:101C3000D65CEE597A587A557A52624F324CF64851
:101C4000AE45FE439E403E3DC6394E36BE322E2F37
:101C5000662DD6292E268622DE1E361B8217A21559
:101C6000E211160E560A9606D602F000F000D002D7
:101C70008406440A040EC411841558170C1BB41EA4
:101C80005022F825A029242DEC2E7C3200367839FC
:101C9000E43C4440A44348459048C04BF04E0852B1
:101CA0000855FC5770594C5C1C5FC8615C64E46665
:101CB0003C695C6A9C6CA06E8C7054722A723A719A
:101CC0004E6F3E6DFE6AB2683666F2645E62A65F73
:101CD000D65CEE59065706547A52624F324CF6489B
:101CE000AE454E429E403E3DC6394E36BE322E2F48
:101CF0009E2BD6292E268622DE1E361B8217A21583
:101D0000E211160E560A9606D602F000F000D00236
:101D10008406440A040EC411841558170C1BB41E03
:101D20005022F8259429242DEC2E7C320036783967
:101D3000E43C4440F44148459048C04BF04EFC51CF
:101D40000855885670594C5C1C5FC8615C64A0657E
:101D500010685C6A906CA06E807048722A724A703B
:101D6000526E3E6DFE6AB2684266AE630261A65F65
:101D7000D65CFA5906570654EE50624F324CF6487C
:101D8000AE455A42EE3E3E3DC6394E36CA322E2F41
:101D90009E2B02282E268622DE1E361B8217C21399
:101DA000E211160E560A9606D602F000F000D00296
:101DB0008406440A040EC411841558170C1BA81E6F
:101DC0005022F82594295C2BEC2E7C320036783991
:101DD000E43C943EF44148459048C04BF04E70506E
:101DE00088537C5670594C5C105F6C600C63A06526
:101DF00010685C6A906CA06E906F70712A724A7065
:101E0000526E2A6CDE69B2684266AE6302614A5E57
:101E10006E5BFA5906570654EE50CA4D9A4A02496B
:101E2000AE455A42EE3E8E3B16384E36CA322E2F03
:101E30009E2B0E282E268622DE1E361B8217C213EC
:101E4000E211160E560A9606D602F000F000D002F5
:101E50008406440A040EC411A41358170C1BA81EB0
:101E60005022F825CC275C2BEC2E7C3200367839BA
:101E7000343B943EF44148459048C04B584D705017
:101E80007C537C5670594C5CB45D6C600C63A065EF
:101E900004683069706B986D906F6471467156700C
:101EA000526E2A6CDE698667FE64AE630E614A5E1E
:101EB0006E5B865806570654EE50D64D9A4A5E47DA
:101EC000AE455A42FA3E8E3B16384E36CA323A2F4B
:101ED0009E2B0E285A248622DE1E361B8217C21322
:101EE000E211160E560A9606D602F000F000D00255
:101EF0008406440A040EC411A41358170C1BA81E10
:101F00005022F825CC275C2BEC2E7C320036BC37D7
:101F1000343B943EF44148459048284A584D70500F
:101F20007C537C56F057D85AB45D6C600C63946552
:101F3000D8663069706B986D906F807046715A6F7B
:101F40004A6D0A6BEA698667FE645E62B25F4A5E4A
:101F50006E5B865886558652EE50D64DA64A5E4731
:101F60000A445A42FA3E8E3B16389234CA323A2F0D
:101F70009E2B0E285A24B220DE1E361B8217C21357
:101F80000210160E560A9606D602F000F000D00295
:101F90008406440A040EC411981358170C1BA81E7B
:101FA00050222424CC275C2BEC2E7C323834BC37D6
:101FB000283B943EE8419843EC46284A584D7050DF
:101FC0007C53FC54F057D85AA85D6C60BC615064D7
:101FD000CC663069706B846C946E747056705A6FF6
:101FE0004A6D166BBE688667FE646A62B25FE25C29
:101FF0006E5B8658925586526E4FD64DA64A5E4706
:102000000A44AA40FA3E8E3B1638923402313A2FE7
:102010009E2B0E286624B220DE1E361B8217C213AA
:102020000210160E560A9606D602F000F000D002F4
:102030008406440A040EE40F98135817001BA81EC8
:102040007C202424CC275C2BEC2EA8303834BC37E1
:10205000283B943E38409843E046284A4C4DE44E95
:10206000FC51FC54F057D85A405C045FBC6150648A
:10207000CC660468506A846C946E747056705E6EA0
:10208000366C166BBE684E66BA636A62B25FE25C1B
:10209000065A1257925586526E4F3E4C02495E4781
:1020A0000A44AA404A3D8E3B163892340231722DC2
:1020B000AA2B0E286624B2200A1D361B8217C213D3
:1020C0000210220E560A9606D602F000F000D00248
:1020D0008406440A040EE40F98135817001BA81E28
:1020E0007C202424CC275C2BEC2EA8303834B0374D
:1020F000283BD83C38409843E046284AB44BE44E4D
:10210000F051FC54F0576459405C045FBC610063BB
:102110009465F867506A846C8C6D846F62705E6E33
:10212000366CEA69BE684E66BA630E61565EEE5C56
:10213000065A1257125486526E4F3E4C0249BA4507
:102140000A44AA404A3DD239163892340231722DDF
:10215000E2290E286624B2200A1D361B8217C213FC
:102160000210420C560A9606D602F000F000D00289
:102170008406440A040EE40F98135817001BD41C5D
:102180007C202424C0275C2B242DA8303834B03781
:102190006C39D83C38409843E0468448B44BD84E1C
:1021A000F0517C5370566459405C045F606000637A
:1021B0008865F8672469646B8C6D846F666F566DF3
:1021C000366CF66992670A65BA631A61565E7A5B85
:1021D000065A12571254FA50E24D3E4C0E49BA4577
:1021E0006642AA404A3DD2395A3692340231722DA3
:1021F000E2290E286624B2200A1D62198217C21332
:102200000210420C560A9606D602F000F000D002E8
:102210008406440A040EE40F98135817001BD41CBC
:102220007C202424C0279429182DA8303834F43574
:102230006C39D83C384098433C458448B44BD84E20
:102240006450705370565859CC5A9C5D606000635E
:102250004464CC662469646B8C6D886E726F566DB5
:10226000226BCA6892670A657662BE5F565E7A5BC9
:10227000925892551254FA50E24DA64A0E49BA4568
:102280006642FA3E4A3DD2395A36CA320231722D7E
:10229000E2293A266624BE200A1D62198217C2135B
:1022A0000210420C560A9606D602F000F000D00248
:1022B0008406440A040EE40F98135817001BD41C1C
:1022C0007C202424C0279429182DA8303834F435D4
:1022D0006C39D83C3840E8413C458448B44B4C4DBF
:1022E000645070537056E457CC5A9C5D6060B06186
:1022F0004464C0662469446A786C886E6A6E426C75
:10230000226BCA685A6616657662BE5FEE5C865BB3
:1023100092589E5592520651E24DB24A6A47C645BE
:102320006642063F9A3BDE395A36D6323A2F722D34
:10233000E2293A266624BE200A1D62198217C213BA
:102340000210420C560A9606D602F000F000D002A7
:102350008406440A240CE40F981358172C19D41C33
:102360007C202424EC259429182DA8307032F435D3
:102370006C39D83C883EE8413C4584481C4A4C4D69
:102380006450F051F054E457CC5A345CF85EB061BC
:1023900044648865EC67446A786C806D6A6E426C50
:1023A000F669CA685A66C6631A61BE5FEE5C125A65
:1023B0001E579E5592527A4FE24DB24A6A471644D2
:1023C0006642063F9A3B22385A36D6323A2F722D51
:1023D000E2293A269222BE200A1D6219A215C213D2
:1023E0000210420C560A9606D602F000F000C40213
:1023F0008406440A240CD80F981358172C19D41C9F
:102400007C201824EC258829182DE02E7032F43514
:102410006C391C3B883EDC413C45D4461C4A404D4F
:10242000D84EE451F054E4575859345CF85EA46136
:10243000F4627C65EC671869586B806D626D426C64
:10244000026A9E671665C6632661625EFA5C125A6E
:102450001E571E5492527A4F4A4CB24A6A4716444B
:10246000B640063F9A3B22385A36D6323A2FAA2B2C
:10247000E2293A269222BE200A1D6219A215C21331
:102480000210420C560A9606D602F000F000C40272
:102490008406440A240CD80F981358172C19D41CFE
:1024A0007C204422EC258829182DE02E7032F4354A
:1024B000B0371C3B883EDC418C43D4461C4AA84BB9
:1024C000D84EE451F05464565859345C9C5D5460C5
:1024D000F4627C65B4661869586B6C6C626D2E6B27
:1024E000D6689E67166582622661625E865B9E582C
:1024F0001E571E5406517A4F4A4C0E496A471644DD
:10250000B640563D9A3B22389E34D632462FAA2BEF
:102510001A283A269222EA1E0A1D6219A215C2132F
:102520000210420C76089606D602F000F000C402B3
:102530008406440A240CD80F981378152C19D41C3F
:102540007C204422EC258829502BE02E70322C343C
:10255000B0371C3B883E2C408C43D4467848A84B6F
:10256000CC4E5850645364564C59C05A905D5460D8
:10257000A4613864B4661869386A6C6C4E6C2E6B52
:10258000D6686666D2638262CA5FFA5C865B9E58D2
:102590009E551E540651EE4D4A4C1A49C6452244DA
:1025A000B640563DDE3922389E340E31462FAA2BD6
:1025B0001A283A269222EA1E161D6219AE15E21159
:1025C0000210420C76089606D602F000F000C40213
:1025D0008406440A240CD80F981378152C19D41C9F
:1025E000A81E4422EC25C027502BE02E64322C3448
:1025F000A4371C3BCC3C2C408C4330457848A84B3E
:10260000404D585064536456D857C05A905DEC5EA4
:10261000A46138647C65E067386A4C6B4E6C026A72
:10262000AA676666D2632661CA5FFA5C1E5A9E5824
:10263000AA559E520651EE4DB24A1A49C6457242FB
:10264000B640563DDE3922389E340E317E2DAA2BFF
:102650001A2866249222EA1E421B6219AE15E21164
:102660000210420C76089606D602F000F000C40272
:102670008406440A240CD80F981378152C19D41CFE
:10268000A81E4422EC25C027502BE02E9C302C3471
:10269000A4376039CC3C2C40DC4130457848104AA6
:1026A000404D5850E451E454D8574C59285CEC5EE6
:1026B0004860E8627065E0670C694C6B2E6B0E6ACF
:1026C000AA672265D26332616E5E065D1E5A2A5782
:1026D000AA559E52864FEE4DBE4A7647D24572426B
:1026E000063F563DDE3966369E340E317E2DB62BC2
:1026F0001A2866249222EA1E421B6219AE15E211C4
:102700000210420C76089606D602F000F000C402D1
:1027100084066408240CD80FB81178152C19001BF6
:102720009C1E44221824C027502B182D9C302C347A
:10273000E8356039CC3C7C3EDC413045D446104A1B
:10274000404DCC4ED851E45458564C59285C905DBD
:102750004860E8622C64A8660C692C6A3A6BE268EF
:10276000726622658E62D65F6E5E925BAA582A57A9
:102770002A549E52864F564CBE4A76472244724295
:10278000123FA63BEA396636D6320E317E2DEE294F
:102790001A287224BE20EA1E421B6219AE15E211ED
:1027A0000210420C76089606D602F000F000C40231
:1027B00084066408240CD80FB81178152C19001B56
:1027C0009C1E44221824C027502B182D9C302C34DA
:1027D000E83560391C3B7C3EDC418043C846104AEA
:1027E0009C4BCC4ED851645358564059B45A845DD2
:1027F000486098612C64A866E0672C6A0E6AB66728
:102800007266DE638E62D65F065D925BAA58AA5539
:102810002A541251EE4D564C1A4976472244C24072
:10282000123FA63B2E386636E232462F7E2DEE2929
:102830001A287224BE20EA1E421B8E17AE15E21122
:10284000220E420C82089606D602F000F000C40266
:1028500084066408240CD80FB81178152C19001BB5
:102860009C1E70201824C02788290C2D9C306432AF
:10287000E8356039103B7C3E20408043C8466C48B8
:102880009C4BC04E4C5058535856CC57B45A1C5CB5
:10289000E05E9861DC627065D46700691A6AB667A9
:1028A0002E65DE6332617A5E065D2A5AAA58AA5501
:1028B000AA521251FA4DBE4A1A49D2452244C24088
:1028C000623DA63B2E38AA34E232462F7E2DEE29F9
:1028D00046267224BE20EA1E421B8E17AE15E21158
:1028E000220E420C82089606D602F000F000C402C6
:1028F00084066408240CD80FB81178154C17001BF7
:102900009C1E70201824B42788290C2DD42E6432E4
:10291000E835A437103B7C3E2040804324456C487A
:102920009C4B344D4C505853D854CC5740591C5C98
:10293000E05E3C60DC622064A8660069EE68726656
:102940002E658E623E617A5E9E5B2A5A36573654F9
:10295000AA52864FFA4DBE4A8247D2457242C240C1
:10296000623DEA392E38AA34E232462FB62BEE29E0
:1029700046267224BE20161D421B8E17AE15E2118C
:10298000220E420C82089606D602F000F000C40225
:1029900084066408240CD80FB81178154C17001B56
:1029A0009C1E70201824E02588290C2DD42E64321A
:1029B0002034A437103BC03C2040D04124456C4813
:1029C000044A344DC04ED851D854585640591C5C16
:1029D000845D3C608C6120649C66D467B6677E66CB
:1029E000EA639A62E25F125D9E5BB65836573654D0
:1029F0001E51924F624CCA4A82472E447E42123F79
:102A0000623DEA392E38AA341A31462FB62BEE2908
:102A100046269E22BE20161D421B8E17CE13E211A3
:102A2000220E420C8208B604D602F000F000C40266
:102A300084066408240CF80DB81178154C17001B97
:102A4000C81C70201824E0258829442BD42E643219
:102A5000203498375439C03C2040D0412445C846E2
:102A6000044A9C4BC04ECC5158534C56CC57A85A94
:102A7000785DE05E8C61DC626465C867C2673A6558
:102A8000EA633E617A5E125D2A5AB658B6553654EC
:102A90001E51FA4D624C264982472E447E42123F17
:102AA000B23BEA397236AA341A31522FB62B1A28A1
:102AB00046269E22CA20161D6E198E17CE13E211CD
:102AC000220E420C8208B604D602F000F000C402C6
:102AD00084066408240CF80DB81178154C17F41A04
:102AE000C81C70204422E0257C29442BD42E9C3025
:102AF0002034DC355439C03C703ED0417443C84664
:102B00006048904BC04E40505853CC54C057A85AC0
:102B1000105CD45E3060D06220649C667E663A654C
:102B20009A62E25F865EAA5B2A5A4257B655B6524F
:102B30001E51FA4DCA4A2649DE452E44CE401E3F5C
:102B4000B23BEA397236E2321A318A2DB62B262888
:102B500046269E22F61E161D6E198E17CE13EE11F6
:102B6000220E420C8208B604D602F000F000C40225
:102B700084066408240CF80DB81198134C17F41A45
:102B8000C81C70204422E025B427442B0C2D903023
:102B90002034DC355439103B703E20407443BC4631
:102BA0006048904B284D4050CC51CC544C56345931
:102BB000105C785D30608061146458658A66F663E5
:102BC0004A61EE5F1E5DAA5BC25842573654B65248
:102BD000924F064ECA4A8247DE457E42CE406E3D47
:102BE000B23B3A387236E2321A318A2DEE29262863
:102BF00072249E22F61E161D6E198E17CE13EE112C
:102C0000220E620A8208B604D602F000F000C40266
:102C100084066408180CF80DB81198134C17201985
:102C2000C81C70203822E025B427442B0C2D90308E
:102C30005832DC359837103B703E144074431845C9
:102C40006048F849284DB44ECC514C534C56345939
:102C50009C5A785DD45E8061D06258654665A662F4
:102C60004A61865E1E5D365AC258C25542542A5188
:102C7000924F6E4CCA4A8E47DE457E421E3F6E3DE5
:102C8000F6393A38B634E232522F8A2DEE29262808
:102C900072249E22F61E161D6E198E17CE130E106C
:102CA000220E620A8208B604D602F000F000C402C6
:102CB00084066408180CF80DB8118C134C172019F1
:102CC000C81C9C1E38220C24B4277C290C2D903063
:102CD0005832DC359837043BC03C1440C441184599
:102CE000BC46F849904BB44E40504C53C054C0576A
:102CF0009C5A045CD45E2460D0621464F663A662BD
:102D0000EE5F865EB65B365A4257C255B6522A51BE
:102D1000064E6E4C32498E473A448A421E3F6E3D03
:102D2000F6393A38B634EE32522FC22BFA295226EF
:102D30007224CA20F61E421B6E19AE15CE130E1059
:102D4000220E620A8208B604D602F000F000C40225
:102D500084066408180CF80DB8118C134C17201950
:102D6000C81C9C1E38220C24B4277C290C2DC82E8C
:102D70005832203498374839C03C643EC4417443CB
:102D8000BC465448904B1C4D3450C051C054405622
:102D90002859045C6C5D246074611464026456619B
:102DA000EE5F2A5DB65BC2584E574254B6529E4FF4
:102DB000064ED64A3249EA453A44DA401E3FB23B13
:102DC000F6397E36B6342631522FC22BFA295226D6
:102DD0007224CA20F61E421B6E19AE15CE130E10B9
:102DE000220E620A8208B604D602F000F000C40285
:102DF000A4046408380AF80DD80F8C136C15201938
:102E0000F41A9C1E64200C24E0257C29382BC82E43
:102E100090301434DC354839043B643E1440684338
:102E200018455448EC491C4DA84EC05140534056DB
:102E3000B4579C5A045CC85E2460C462B262566196
:102E4000925E2A5D425ACE58CE55425436519E4F1C
:102E50006E4CD64A8E47EA458A42DA406E3DBE3B0A
:102E60003A387E36EE3226318A2DC22B262852265B
:102E70007E24CA20F61E4E1B6E19AE15CE130E1000
:102E8000220E620A8208B604D602F000F000C402E4
:102E9000A4046408380AF80DD80F8C136C15201997
:102EA000F41A9C1E64200C24E0257C29382BC82EA3
:102EB00090301434DC354839043B643E1440684398
:102EC00018455448EC49844BA84E34504053C054E4
:102ED000B4571C59045C605D186074615661FA5FF8
:102EE0002A5DB65B425A4E57CE55C2523651124EEB
:102EF0007A4C3E498E4746448A422A3F6E3D023A0A
:102F00003A387E36EE3226318A2DC22B26285226BA
:102F1000AA22CA20221D4E1B9A17AE15EE110E10C2
:102F2000220E620A8208B604D602F000F000C40243
:102F3000A4046408380AF80DD80F8C136C152019F6
:102F4000F41A9C1E64200C24D425A827382B002DAD
:102F500090304C32D0358C37043BB43C1440B841EF
:102F60000C45B046EC49844B1C4D3450B451C05410
:102F700034561C59905A605DBC5E686162619E5E09
:102F80002A5D4E5ACE58CE554E54C252AA4F124EBA
:102F9000E24A3E49EA454644DA402A3F7A3D023A4F
:102FA0003A38C234EE325E2F962DFA292628522660
:102FB000AA22CA20221D4E1B9A17AE15EE110E1022
:102FC000420C620A8208B604D602F000F000C40285
:102FD000A4046408380AF80DD80F8C136C15201956
:102FE000F41ABC1C64203822D425A827382B002DC5
:102FF00090304C3214348C374839B43C583EB84188
:103000006843B0465448844B104DA84EB4513453D5
:103010003456A857905AF85BBC5E186006609E5EF6
:10302000C25B4E5A5A57DA55CE523651AA4F7A4C95
:10303000E24A9A47F6459642DA402A3FBE3B023AB8
:103040008A36C23426315E2F962DFA2926287E2410
:10305000AA22F61E221D4E1B9A17AE15EE110E1057
:10306000420C620A8208B604D602F000F000C402E4
:10307000A4046408380AF80DD80F8C136C154C178B
:10308000F41ABC1C64203822D425A8277029002DEE
:10309000BC2E4C3214348C374839F83A583E08402C
:1030A00068430C454848EC49784B9C4E28503453B3
:1030B000B454A8571C59845A545DBC5E9E5E365D5C
:1030C000C25BDA585A575A54CE52AA4F1E4E7A4C07
:1030D0003E499A4746449642E6407A3DBE3B4638D2
:1030E0008A36FA3226315E2FCE2BFA2952267E24DA
:1030F000AA22F61E221D7A199A17BA15EE110E1081
:10310000420C620AA206B604D602F000F000C40225
:10311000A4046408380AF80DD80FAC116C154C17CC
:10312000F41ABC1C901E38220024A8277029002DF8
:10313000BC2E84301434D0353C39F83AA83C0840D1
:10314000B8410C45A446E049784B104D2850B45185
:10315000B4542856A857845AEC5BB05EAA5ECE5B86
:103160004E5A6657DA555A544251B64F864CE24A87
:103170004A49F64546449642363F7A3D023A463839
:103180008A36FA322631962DCE2BFA295E267E24F7
:10319000D620F61E221D7A199A17DA13EE110E1098
:1031A000420C620AA206B604D602F000F000C40285
:1031B000A4046408380A180CD80FAC116C154C170D
:1031C0002019BC1C901E38220024D4257029382BCD
:1031D000BC2E84304C32D0358037F83AA83C583E6B
:1031E000AC415C43A4464848E049104D9C4EA85170
:1031F0003453A8549C571059EC5B545D425DCE5B30
:10320000E65866575A54CE5242511E4E864CEE4AEC
:10321000A647F6459642E640363FCA3B0E3A463848
:10322000C234FA326A2F962DCE2B32285E26AA227D
:10323000D620021F4E1B7A199A17DA13EE112E0EA2
:10324000420C620AA206B604D602F000F000C402E4
:10325000A4046408380A180CD80FAC116C15401778
:103260002019BC1C901E64200024D4257029382B02
:10327000F42C84304C32083480373C39A83C583E1A
:10328000FC3F5C430045A446E049784B9C4E1C50F3
:10329000A851A85428561059785AEC5BCE5B5A5A5C
:1032A000E658E65566544E51B64F1E4EEE4A4A4910
:1032B000A6475244A242E640863DCA3B52388A366F
:1032C000C23432316A2F962D062A32285E26AA226F
:1032D000D620021F4E1B7A19BA15DA13EE112E0EE4
:1032E0004E0C620AA206B604D602F000F000C40238
:1032F000A4046408380A180CD80FAC118C134017BA
:103300002019E81A901E58200024D4259C27382B19
:10331000F42CBC2E40320834C4353C39EC3A583ECB
:10332000FC3FAC410045A4463C486C4B044D904EDC
:10333000A851285328569C570459E05BDA5BE6589D
:103340006657E655DA524E512A4E924CEE4AA6473F
:1033500002465244F240363F863D0E3A52388A3693
:10336000FA3232316A2FCE2B062A32288A24AA2238
:10337000D6202E1D4E1B7A19BA15DA13EE112E0E19
:103380004E0C620AA206B604D602F000F000C40297
:10339000A4046408380A180CD80FAC118C13401719
:1033A0002019E81A901E58202C22D4259C27642925
:1033B000F42CBC2E78300834C4358037EC3A9C3C71
:1033C0004C3EAC41504300453C48D4496C4B904E78
:1033D0001C5028539C541C560459785A665AE65877
:1033E000F2556654DA52C24F2A4E924C5649A647BD
:1033F0000246A242F240363FD63B0E3A5238CE3415
:1034000006333231A22DCE2B062A5E268A24AA222A
:10341000021F2E1D4E1B9A17BA15DA130E102E0E10
:103420004E0C8208A206B604F600F000F000C402BA
:10343000A4048406380A180CF80DAC118C1360151E
:103440002019E81ABC1C58202C2200249C2764292F
:103450002C2BBC2E78304032C435803730399C3C20
:103460004C3EFC3F5043F4449846D4496C4BF84CD6
:103470001C509C511C531C5690570459F2587257BB
:103480007254E6524E51C24F924CFA4A56490E4679
:103490005E44A242423F923DD63B0E3A9636CE342F
:1034A00006336A2FA22DDA2B3E285E268A24D620E8
:1034B000021F2E1D4E1B9A17BA15DA130E102E0E70
:1034C0004E0C8208A206B604F600F000F000C4021A
:1034D000A4048406380A180CEC0DAC118C1360158A
:1034E0001419E81ABC1C841E2C220024C825642947
:1034F0002C2BF42C78304032FC3380373039EC3AC6
:103500009C3CFC3FA041504398463C48D449F84C71
:10351000844E10501C539C54105684577E57F255BD
:1035200072545A51CE4F364E924C5649B2470E46BF
:10353000AE42F240423F923D1A3A52389636063336
:103540003E316A2FA22D122A3E285E26B622E220A4
:10355000021F2E1D7A19A617BA15FA110E102E0E7B
:103560004E0C8208A206B604F600F000F000C40279
:10357000A4048406380A180CEC0DAC118C136015E9
:103580004017E81ABC1C841E2C220024C8259C2746
:103590002C2BE82CB02E4032FC33B8357437EC3A83
:1035A0009C3C403EA0415043F4448C46D449604B7F
:1035B000F84C105090511C53905484577E577254BD
:1035C000E6525A51CE4F9E4CFA4A62490E465E442C
:1035D000AE42FE40923DD63B1A3A5238DA340633B8
:1035E0003E316A2FDA2B122A3E288A24B622E220A4
:1035F000021F5A1B7A19A617BA15FA110E102E0EB1
:103600006E0A8208A206B604F600F000F000C402BA
:10361000A4048406380A180CEC0DCC0F8C1360152A
:1036200040171419BC1C841E5820F423C8259C275D
:103630006429E82CB02E78303432B83574373039FC
:10364000E03A403EF03FA041F4448C463048C8493F
:10365000F84C844E0450905190541056FE557E54B0
:103660006651CE4F364E9E4C6249BE470E465E4472
:10367000FE404E3F923DD63B5E38A236DA340633EA
:10368000762FAE2DDA2B122A6A268A24B622E22061
:103690002E1D5A1B7A19A617DA13FA110E102E0EC8
:1036A0006E0A8208A206B604F600F000F000C4021A
:1036B000A40484065808180CEC0DCC0FAC1160154E
:1036C00040171419E81A841E58202022F4239C273E
:1036D0006429202BE82C78303432FC33B835243977
:1036E000E03A903C403E94414443E8448C46C8490B
:1036F000544BEC4C784E9051105390547E54F252EF
:103700006651424E9E4C064B62491A466A44BA4282
:10371000FE404E3FE23B1A3A5E38A23612333E314B
:10372000762FAE2D122A3E286A269624B6220E1F28
:103730002E1D5A1B8619C615DA13FA110E104E0CDF
:103740006E0A8208A206B604F600F000F000C40279
:10375000A40484065808180CEC0DCC0FAC116015AD
:1037600040171419E81AB01C58202022F423C82549
:103770006429202BE82CA42E3432FC33B83568376A
:103780002439903C403EE43F9441E8448C46244830
:10379000BC49EC4C784E045084510453FE5266519F
:1037A000DA4F424E124B6E49BE471A466A440A41EE
:1037B0004E3F9E3DE23B263AA236DA3412333E318A
:1037C000762FE62B122A3E286A26C222E2200E1FFE
:1037D0002E1D5A1BA617C615DA13FA110E104E0C21
:1037E0006E0A8208A206B604F600F000F000C402D9
:1037F000A40484065808180CEC0DCC0FAC118013EF
:1038000040171419DC1AB01C841E2022F423BC2596
:103810009027202BE82CA42E6C303432B835683732
:103820002439E03A903CE43F94413843E8448046F0
:10383000BC49544BE04C784E84510453FE52DA4F4D
:103840004E4EAA4C124B6E491A467644BA420A4171
:103850004E3FE23B263A6A38A236DA344A31822FAA
:10386000AE2DE62B122A3E289624C222E2200E1FFD
:103870002E1D8619A617C615DA13FA113A0E4E0C2C
:103880006E0A8208A206E202F600F000F000C4020E
:10389000A40484065808380AEC0DCC0FAC11801330
:1038A00060151419DC1AB01C841E4C20F423BC25AE
:1038B00090275829202BA42E6C303432F033AC35AD
:1038C0006837D43A903C343EE43F8841DC4480463B
:1038D0002448BC49484B6C4EF84F84517251E64F16
:1038E000B64C124B6E49CA47264676440A415A3FA7
:1038F0009E3DEE3B263A6A38E63412334A31822F37
:10390000AE2DE62B4A286A269624C222E2203A1DD2
:103910005A1B8619A617C615DA131A103A0E4E0C42
:103920006E0A8208A206E202F600F000F000C4026D
:10393000A40484065808380AEC0DCC0FAC1180138F
:1039400060153417DC1AB01C841E4C202022E8239A
:1039500090275829202BDC2CA42E6030F033AC3576
:1039600068371839D43A843CE43F88413843DC4412
:103970007446BC49484BE04C6C4EEC4FE64F4E4E03
:10398000B64C124BD64726467644C6420A415A3FA9
:10399000EE3B323A6A38AE36E6341E334A31BA2D3F
:1039A000E62B1E2A4A2876269624C2220E1F3A1D8E
:1039B000661B8619A617C615FA111A103A0E4E0C78
:1039C0006E0A8208A206E202F600F000F000C402CD
:1039D000A40484065808380A0C0CCC0FA0118013DC
:1039E000601534170819DC1A841E4C202022E823A5
:1039F000BC258427202BDC2CA42E60302832F03309
:103A0000AC351839D43A843C283ED83F8841DC4450
:103A100074461848B049484BD44C604E5A4EB64C88
:103A20001E4B7A49D6472646C64216415A3FAA3D02
:103A3000EE3B323A6A38E6341E335631822FBA2DC5
:103A4000E62B1E2A4A28A224C222EE200E1F3A1D6F
:103A5000661B8619A617E613FA111A103A0E4E0CB9
:103A60006E0A8208C204E202F600F000F000C4020E
:103A7000A40484065808380A0C0CEC0DA01180131D
:103A8000601534170819DC1AA41C781E2022E823BC
:103A9000BC2584275829142BDC2C60302832E433D1
:103AA000AC355C371839C83A783CD83F88412C434C
:103AB000D04474460C48A4493C4B604EC24C2A4B3F
:103AC0008649D64732468244C6421641663FFA3B93
:103AD000323A7638AE36F2341E335631822FBA2D52
:103AE0001E2A56287626A224C222EE200E1F3A1D38
:103AF000661BB217C615E613FA111A103A0E4E0CD1
:103B00006E0A8208C204E202F600F000F000C4026D
:103B1000A40484065808380A0C0CEC0DC00F80135E
:103B2000601534170819DC1AA41C781E4C201422C6
:103B3000BC2584274C29142BDC2C982E60301C3299
:103B4000E4335C371839C83A783C283ECC3F7C4196
:103B50002C43D0440C48A4493C4BD44CC24C86491D
:103B6000E24732468244D2422241663FB63DFA3BAA
:103B7000323A7638F2342A3356318E2FBA2DF22B60
:103B80002A2A56287626A224C2221A1F3A1D661B0C
:103B90009219B217C615E613FA111A103A0E4E0C06
:103BA0008E08A206C204E202F600F000F000C40291
:103BB000A40478065808380A0C0CEC0DC00FA011AC
:103BC000801354150819DC1AA41C781E4C201422EA
:103BD000E823B02584274C29142B982E60301C3202
:103BE000E433A0355C370C39C83A783C1C3ECC3FF6
:103BF0002C43D04468460C48A449304B2A4B864994
:103C0000E2473246D2422241723FB63DFA3B3E3A4B
:103C10007638BA36F2342A3356318E2FBA2DF22B3B
:103C20002A2A8226A224CE22EE201A1F461D661BB7
:103C30009219B217C615E61306121A103A0E6E0A3A
:103C40008E08A206C204E202F600F000F000C402F0
:103C5000A40478065808380A0C0CEC0DC00FA0110B
:103C60008013541534170819D01A781E40201422D6
:103C7000E823B02584274C29082BD02C982E5430CB
:103C80001C32D83394350C39C83A783C1C3ECC3FB2
:103C900070412043C4446846004898499249E2472D
:103CA0003E468E44DE422241723FB63DFA3B8238A8
:103CB000C636FE342A3362318E2FC62DFE2B2A2AB9
:103CC00056288226A224CE22EE201A1F461D661BED
:103CD0009219B217C615E61326103A0E5A0C6E0A40
:103CE0008E08A206C204E202F600F000F000C40250
:103CF000A40478065808380A0C0CEC0DC00FA0116B
:103D00007413541534170819D01AA41C6C1E4020C3
:103D10001422DC23B0254C29082BD02C982E5430AB
:103D20001C32D833943550370039BC3A6C3C1C3EB9
:103D3000C03F70411443B8445C460048EE474A46D1
:103D40009A44DE422E41723FC23D063C4A3A8238D6
:103D5000C636FE342A3362318E2FC62DFE2B2A2A18
:103D600056288226A224CE22261F461D721B921997
:103D7000B217D215E613061226103A0E5A0C6E0A26
:103D80008E08A206C204E202F600F000F000C402AF
:103D9000A40478065808380A0C0CEC0DC00FA011CA
:103DA0007413541534170819D01AA41C6C1E402023
:103DB0001422DC23B02578274029082BC42C8C2E14
:103DC00054301032D833943544370039BC3A6C3C07
:103DD000103EC03F1443B8445C4600484A469A44EB
:103DE000EA422E417E3FC23D063C4A3A8E38C636F4
:103DF000FE34363362319A2FD22DFE2B362A6228BA
:103E00008226AE24CE22FA20261F461D721B92194E
:103E1000B217D215E613061226103A0E5A0C6E0A85
:103E20008E08A206C204E202F600F000F000C4020E
:103E3000A40478065808380A0C0CEC0DC00FA01129
:103E40007413541534170819D01AA41C6C1E402082
:103E50000822DC23B02578274029082BC42C8C2E7F
:103E600054301032D833943544370039B03A603C7E
:103E7000103EC03F64411443B8445046A644EA4251
:103E80003A417E3FCE3DCE3D123C4A3A8E38C63650
:103E9000FE34363362319A2FD22DFE2B362A622819
:103EA0008226AE24CE22FA20261F461D721B9219AE
:103EB000B217D215F213061226103A0E5A0C6E0AD9
:103EC0008E08A206C204E202F600F000F000E40050
:103ED000C4029804780658082C0A0C0CE00DC00F98
:103EE0009411741354152817FC18D01A981C6C1EC2
:103EF00034200822DC23A42578274029FC2AC42C5E
:103F0000802E48301032CC3388354437F438B03AFC
:103F1000603C103EB43F64410843AC44A644EA42CE
:103F20003A417E3FCE3D123C563A8E38D2360A3563
:103F300036336E31A62FD22D0A2C362A62288E26D1
:103F4000AE24DA220621261F521D721B9E19BE17AF
:103F5000B217D215F213061226103A0E5A0C6E0A38
:103F60008E08A206C204E202F600F000F000E400AF
:103F7000C4029804780658082C0A0C0CE00DC00FF7
:103F80009411741348152817FC18D01A981C6C1E2D
:103F900034200822D023A42578274029FC2AC42CC9
:103FA000802E483004320432CC3388353837F43828
:103FB000A43A543C043EB43F58410843F6423A41C7
:103FC0008A3FDA3D1E3C563A9A38D2360A35423399
:103FD0007A31A62FDE2D0A2C0A2C362A62288E264C
:103FE000AE24DA220621261F521D721B9E19BE170F
:103FF000D215F21312122610460E3A0E5A0C6E0A01
:104000008E08A206C204E202F600F000F000E4000E
:10401000C4029804780658082C0A0C0CE00DC00F56
:104020009411741348152817FC18D01A981C6C1E8C
:10403000601E3420FC21D023A4256C273429FC2ABF
:10404000B82C802E3C300432CC3388353837F438E5
:10405000A43AA43A543CF83DA83F58414641963F03
:10406000DA3D1E3C623A9A38DE3616350A3542335E
:104070007A31A62FDE2D0A2C422A6E288E26BA24EB
:10408000E6220621321F261F521D721B9E19BE17E3
:10409000D215F21312122610460E5A0C7A0A8E0806
:1040A0008E08A206C204E202F600F000F000E4006E
:1040B000C4029804780658082C0A0C0CE00DC00FB6
:1040C00094117413481548152817FC18C41A981C25
:1040D000601E3420FC21D02398256C273429FC2A2B
:1040E000F02AB82C742E3C30F831C0337C35383788
:1040F000E838A43A543CF83DA83F9C3F963FE63D43
:104100002A3C623AA6389A38DE3616354E337A3172
:10411000B22FDE2D162C422A6E286E288E26BA2447
:10412000E6220621321F521D7E1B9E19BE17BE17A6
:10413000DE15F21312122610460E5A0C7A0A8E0859
:10414000AE06AE06C204E202F600F000F000E400A3
:10415000C4029804780658082C0A0C0CE00DC00F15
:10416000B40F9411681348151C17FC18C41A981C36
:10417000601E34202820FC21C42398256C27342974
:10418000F02AB82C742E3C303030F831B4337C3502
:104190002C37E838983A483CF83D9C3FE63D2A3CAD
:1041A0006E3A623AA638EA3622354E338631B22F5D
:1041B000EA2DDE2D162C422A6E289A26C624E622E7
:1041C0001221321F321F521D7E1B9E19BE17DE1593
:1041D000FE13121212122610460E5A0C7A0A8E087C
:1041E000AE06CE04C204E202F600F000F000E400E5
:1041F000C4029804780658082C0A0C0CE00DE00D57
:10420000B40F9411681348151C17FC18C41AC41A6B
:104210008C1C601E2820FC21C42398256027602761
:104220002829F02AAC2C742E3030F831B433B43352
:1042300070352C37DC38983A483CEC3D363C6E3AC9
:104240006E3AA638EA3622355A338631BE2FB22F5F
:10425000EA2D162C4E2A7A28A626C624C624E62243
:104260001221321F5E1D7E1BAA199E19CA17DE1568
:10427000FE1312123210460E460E5A0C7A0A8E089F
:10428000AE06CE04E202E202F600F000F000E40026
:10429000C402980478064C082C0A2C0A000CE00D85
:1042A000B40F9411681348153C151C17F018C41A64
:1042B0008C1C601E28202820F021C4238C25602718
:1042C0002829F02AE42AAC2C682E3030EC31B433A3
:1042D000703564352037DC388C3A3C3C7A3A7A3A8F
:1042E000B238F6362E355A3392318631BE2FEA2D4A
:1042F000222C4E2A86287A28A626C624F2221221AB
:104300003E1F321F5E1D7E1BAA19CA17EA15DE1555
:10431000FE1312123210460E660C5A0C7A0A8E08E0
:10432000AE06CE04E202E202F600F000F000E40085
:10433000C402980478064C084C082C0A000CE00DC6
:10434000B40F9411881168133C151C17F018C41A87
:10435000B81A8C1C541E2820F021C423B8238C25A5
:1043600054271C29E42AAC2CA02C682E2430EC31D4
:10437000A833643564351437D0388C3A7A3ABE386D
:10438000F6362E35663392319231BE2FF62D222C21
:104390005A2A5A2A8628A626D224F222F22212214A
:1043A0003E1F5E1D8A1BAA19AA19CA17EA15FE1319
:1043B0001E1212123210460E660C7A0A7A0A8E0803
:1043C000AE06CE04E202E202F600F000F000E400E5
:1043D000C402980478064C084C082C0A000CE00D26
:1043E000B40FB40F881168133C151C171017E4188C
:1043F000B81A8C1C541E28201C20F021B8238C25B0
:10440000542754271C29D82AA02C682E5C2E24302F
:10441000E031A833643558351437C438BE38023714
:104420003A3566339E319231CA2FF62D2E2C2E2C22
:104430005A2A8628B226D224D224F2221E213E1FD6
:104440006A1D5E1D8A1BB619D617CA17EA15FE1318
:104450001E1232103210460E660C7A0A9A088E0826
:10446000AE06CE04E2020201F600F000F000E40025
:10447000C402980478066C064C082C0A000CE00D67
:10448000D40DB40F881168133C153C151017E418AF
:10449000B81AB81A801C541E1C20F021E421B8233D
:1044A000802554271C291029D82AA02C5C2E2430C2
:1044B0001830E0319C3358355835083702373A35D3
:1044C00072339E319E31CA2F022E3A2C2E2C662A30
:1044D0009228B226B226D224FE221E214A1F3E1F57
:1044E0006A1D8A1BB619B619D617EA150A14FE13E7
:1044F0001E123210520E460E660C7A0A9A08BA063E
:10450000AE06CE04E2020201F600F000F000E40084
:10451000C402980478066C064C082C0A000C000CA7
:10452000D40DB40F881188115C133C151017E418D2
:10453000E418AC1A801C541E481E1C20E421B82329
:10454000AC238025482710291029CC2A942C5C2ED6
:1045500018301830D4319C3358354C3546357233C9
:10456000AA319E31D62F0E2E3A2C3A2C662A92284A
:10457000BE26B226DE24FE222A211E214A1F6A1DE3
:10458000961B961BB619D617F615EA150A141E12B5
:104590001E123210520E660C660C7A0A9A08BA067F
:1045A000AE06CE04E2020201F600F000F000E400E4
:1045B000C402980498046C064C082C0A200A000CCB
:1045C000D40DB40FA80F88115C133C1530151017CB
:1045D000E418AC1AAC1A801C481E1C201020E421E0
:1045E000AC238025742548271029CC2ACC2A882C76
:1045F000502E502E0C30D431903390337E33AA316C
:10460000E22FE22F0E2E462C3A2C722A9E28BE262E
:10461000BE26DE240A23FE222A214A1F761D6A1D99
:10462000961BC219B619D617F6150A140A141E12CB
:104630003E10520E520E660C860A7A0A9A08BA0684
:10464000CE04CE04E2020201F600F000F000E40025
:10465000C402980498046C064C08200A200A000C36
:10466000D40DD40DA80F88115C135C1330151017EE
:104670000417D818AC1A741C741C481E1020102083
:10468000D821AC23742574253C270429CC2AC02AC0
:10469000882C442E442E0030C8319033B631EE2F92
:1046A000E22F1A2E462C462C722A9E28CA26BE2697
:1046B000EA240A230A232A21561F4A1F761DA21B19
:1046C000C219C219E217F615F6150A142A121E129B
:1046D0003E10520E520E660C860A9A089A08BA06C6
:1046E000CE04CE04E2020201F600F000F000E40085
:1046F000C402980498046C064C084008200A000C78
:10470000F40BD40DA80F88117C115C1330153015F3
:104710000417D818D818A01A741C3C1E3C1E102070
:10472000D821D821A023742568253C270429F828FE
:10473000C02A7C2C442E382E0030BC31EE2F262E81
:104740001A2E522C7E2A7E2AAA28CA26CA26EA2493
:1047500016230A233621561F561F821DA21BA21B99
:10476000C219E217E217F61516140A142A123E109F
:104770003E10520E720C660C860AA6089A08BA06FB
:10478000CE04CE04E2020201F600F000F000E400E4
:10479000C402980498046C064C084008200A000CD7
:1047A000F40BD40DA80FA80F7C115C135013301517
:1047B00004170417D818A01AA01A681C3C1E301E33
:1047C0000420D821CC21A023682568253027F8288B
:1047D000F828B42A7C2C702C382EF42F262E262E66
:1047E000522C8A2A7E2AAA28D626CA26F6241623DE
:1047F00016233621621F621F821DAE1BA21BCE191B
:10480000EE17E2170216F61516142A122A123E1097
:104810005E0E520E720C860A860AA608BA06BA0600
:10482000CE04EE02E2020201F000F000F000E4002B
:10483000C402B80298046C066C064008200A140AE8
:10484000F40BD40DC80DA80F7C117C11501330153A
:1048500024150417D818CC18A01A941A681C301EF6
:10486000301EF81FCC21CC21942368255C253027ED
:10487000F828EC28B42A702C702C2C2E5E2C5E2C80
:104880008A2AB628B628D626D626F6242223162328
:1048900042216E1F621F8E1DAE1BAE1BCE19CE199C
:1048A000EE1702160216161436122A124A103E107D
:1048B0005E0E720C720C860AA608A608BA06BA0624
:1048C000CE04EE02E2020201F000F000F000E4008B
:1048D000C402B80298046C066C064008200A140A48
:1048E000F40BF40BC80DA80F9C0F7C115013501340
:1048F00024152415F816CC18CC18941A681C5C1CC6
:10490000301E241EF81FC021C02194235C255C2585
:1049100024272427EC28A82AA82A642C962A962A39
:10492000C228B628E22602250225222322234E2170
:104930006E1F6E1F8E1D8E1DAE1BDA19CE19EE175F
:104940000E1602162214161436124A104A105E0E63
:104950005E0E720C920A920AA608A608BA06DA043B
:10496000CE04EE02E2020201F000F000F000E400EA
:10497000C402B80298046C066C0640084008140A89
:10498000F40BF40BC80DC80D9C0F7C117011501363
:1049900044132415F816F816CC18C018941A5C1C89
:1049A0005C1C241E241EEC1FC021B42188238823F4
:1049B000502524271827E028E0289C2ACE28C22842
:1049C000EE26E2260E250E252E235A214E217A1F91
:1049D0006E1F9A1DBA1BBA1BDA19DA19FA17EE17ED
:1049E0000E1622142214361236124A106A0E5E0E69
:1049F0007E0C720C920A920AA608C606BA06DA045F
:104A0000CE04EE02E2020201F000F000F000E40049
:104A1000C402B80298048C046C0640084008140ACA
:104A2000140AE80BE80BC80D9C0F9C0F7011701155
:104A3000441324151815F816EC16C018C018881A57
:104A40005C1C501C241E181EEC1FE01FB4217C238C
:104A50007C23502544251827E028D428CE28EE268C
:104A60001A251A253A233A235A215A217A1FA61DBC
:104A70009A1DC61BBA1BE619DA19FA17FA170E1691
:104A80002E1422144212361256104A106A0E5E0E6E
:104A90007E0C9E0A920AB208A608C606BA06DA0476
:104AA000CE04EE0202010201F000F000F000E4008A
:104AB000C402B80298048C046C0660064008140A0C
:104AC000140AE80BE80BC80DBC0D9C0F900F701179
:104AD0004413441318151815EC16EC16C018B41826
:104AE000881A501C501C181E181EE01FE01FA82119
:104AF000A8217023442538250C270C27FA262625C3
:104B00001A25462366216621861F861FA61DA61D1F
:104B1000C61BC61BE619E6190618FA171A160E1652
:104B20002E1442124212561056106A0E6A0E7E0C55
:104B30007E0C9E0A920AB208A608C606BA06DA04D5
:104B4000EE02EE0202010201F000F000F000E400CB
:104B5000C402B80298048C046C066006400834084D
:104B6000140A080AE80BDC0BBC0D9C0F900F7011A7
:104B700064114413381318150C15EC16E016B4180C
:104B8000B4187C1A7C1A441C181E0C1EE01FD41F7B
:104B9000A8219C217023642338252C252625522307
:104BA000462372216621921F861FB21DA61DD21BAD
:104BB000C61BF219E619061826161A163A142E14F0
:104BC0004E12421262105610760E6A0E8A0C8A0C31
:104BD0009E0A9E0AB208B208C606C606DA04DA04BD
:104BE000EE02EE0202010201F000F000F000E4002B
:104BF000C402B80298048C046C06600640083408AD
:104C0000140A080AE80BDC0BBC0DB00D900F900FD6
:104C100064116411381338130C150C15E016E016E6
:104C2000B418A8187C1A701A441C381C0C1E001EDC
:104C3000D41FC81F9C2190216423582352237E2116
:104C400072219E1F921FBE1DB21DDE1BD21BFE19BC
:104C5000F21912181218261626163A143A144E1281
:104C60004E1262106210760E760E760E8A0C8A0C48
:104C70009E0A9E0AB208B208C606C606DA04DA041C
:104C8000EE02EE0202010201F000F000F000E4008A
:104C9000E400B802B8028C048C0460066006340894
:104CA0003408080A080ADC0BDC0BB00DB00D900FBD
:104CB000840F6411581138132C130C150015E016CD
:104CC000D416A818A818701A701A381C381C001EA0
:104CD000001EC81FC81FBC1F902184217E21AA1F4F
:104CE0009E1FCA1DBE1DEA1BDE1BDE1BFE19FE1920
:104CF0001E1812183216261646143A145A124E125C
:104D00006E1062106210760E760E960C8A0CAA0A4D
:104D10009E0ABE08B208D206C606E604DA04DA0421
:104D2000EE02EE0202010201F000F000F000E400E9
:104D3000E400B802B8028C048C04600660063408F3
:104D40003408080A080ADC0BDC0BD00BB00DA40DEC
:104D5000840F840F581158112C132C1300150015B3
:104D6000D416D416C8169C189C18641A641A2C1CE5
:104D70002C1CF41DF41DBC1FBC1F8421AA1FD61DB2
:104D8000CA1DF61BEA1BEA1B0A1A0A1A2A181E1861
:104D90003E1632163216461446145A125A126E1025
:104DA0006E108E0E820E820E960C960CAA0AAA0A1D
:104DB000BE08BE08B208D206C606E604DA04FA0245
:104DC000EE020E0102010201F000F000F000E4002A
:104DD000E400B802B8028C048C0460066006540635
:104DE00034082808080AFC09DC0BD00BB00DA40D10
:104DF000A40D780F780F58114C112C132013201389
:104E0000F414F414C816C8169C189018641A581A8A
:104E1000581A201C201CE81DE81DB01FD61D021CBE
:104E2000F61BF61B161A161A36182A182A183E16DA
:104E30003E1652145214661266125A127A107A10E2
:104E40008E0E8E0E820EA20C960CB60AAA0AAA0A22
:104E5000BE08BE08D206D206E604E604DA04FA0268
:104E6000EE020E0102010201F000F000F000E40089
:104E7000E400B802B8028C048C0480046006540676
:104E8000340828082808FC09FC09D00BD00BA40D15
:104E9000A40D980D780F6C0F4C1140114011201388
:104EA0001413F414E814C816BC16BC169018841811
:104EB000581A4C1A4C1A141C141CDC1D021C021C1F
:104EC000221A221A4218361836184A164A165E1442
:104ED0005E14521472126612861086107A109A0EA0
:104EE0008E0EAE0CA20CA20CB60AB60AAA0ACA080A
:104EF000BE08DE06D206D206E604E604FA02FA028C
:104F0000EE020E010201FC00F000F000F000E400EF
:104F1000E400B802B802AC028C04800460065406B7
:104F2000540628082808FC09FC09F009D00BC40B1A
:104F3000A40D980D980D6C0F6C0F600F401134117B
:104F4000141314130813E814DC14BC16B016B016AE
:104F5000841878184C1A401A401A081C2E1A2E1A57
:104F60004E1842186216561656166A146A145E14C3
:104F70007E127E12721292108610A60E9A0E9A0E51
:104F8000AE0CAE0CA20CC20AB60AB60ACA08CA080F
:104F9000DE06DE06D206F204E604E604FA02FA02AF
:104FA000EE020E010201FC00F000F000F000E4004F
:104FB000E400B802B802AC028C04800480045406F9
:104FC0005406280828081C08FC09F009F009C40B3D
:104FD000C40BB80B980D8C0D6C0F600F600F341163
:104FE000341128110813FC12FC12DC14D014B01672
:104FF000A416A41678186C186C18341A5A184E187F
:105000006E16621662167614761476148A128A1256
:105010007E129E1092109210A60EA60E9A0EBA0C38
:10502000AE0CAE0CC20AC20AD608D608CA08EA06F6
:10503000DE06DE06F204F204E6040603FA02FA02D1
:105040000E010E010201FC00F000F000F000E4008F
:10505000E400B802B802AC028C0480048004540658
:105060005406480628081C081C08F009F009E40941
:10507000C40BB80BB80B8C0D8C0D800D600F540F4A
:10508000540F281128111C11FC12F012F012C41434
:10509000C414C414981698168C1660187A167A16CA
:1050A0008E148E148214A212961296128A12AA10CC
:1050B0009E109E10B20EB20EA60EC60CBA0CBA0C02
:1050C000CE0ACE0AC20AE208D608D608EA06EA06DE
:1050D000DE06FE04F204F204E6040603FA02FA0213
:1050E0000E010E010201FC00F000F000F000E400EF
:1050F000E400D800B802AC02AC028004800474045E
:105100005406480648061C081C081008F009E40963
:10511000E409B80BB80BAC0BAC0B800D800D740D13
:10512000540F480F480F1C111C111011F012E412FB
:10513000E412B814B814AC148C1680169A149A148D
:105140008E14AE12A212A212B610B610AA10CA0E77
:10515000BE0EBE0EB20ED20CC60CC60CDA0ADA0AAD
:10516000CE0ACE0AE208E208D608F606EA06EA0601
:10517000FE04FE04F204F20406030603FA021A0116
:105180000E010E010201FC00F000F000F000E4004E
:10519000E400D800B802AC02AC02800480047404BD
:1051A0007404480648063C061C0810081008040849
:1051B000E409D809D809AC0BAC0BA00B800D740D19
:1051C000740D680D480F3C0F3C0F101110110411A5
:1051D0000411D812D812CC12AC14A014BA12BA12FC
:1051E000AE12CE10C210C210B610D60ECA0ECA0E23
:1051F000DE0CDE0CD20CD20CE60AE60ADA0ADA0A77
:10520000EE08EE08E2080207F606F606EA060A05C8
:10521000FE04FE04F204120306030603FA021A0156
:105220000E010E01FC00FC00F000F000F000E400B4
:10523000E400D800B802AC02AC02A00280047404FE
:105240007404680448063C063C061008100804086C
:105250000408D809D809CC09CC09A00BA00B940BE1
:10526000940B680D680D5C0D3C0F300F300F240F50
:105270000411F810F810EC10CC12C012DA10DA1089
:10528000CE10EE0EE20EE20ED60EF60CEA0CEA0C92
:10529000DE0CFE0AF20AF20AE60A0609FA08FA0821
:1052A000EE08EE0802070207F606F6060A050A05EA
:1052B000FE04FE0412031203060306031A011A0178
:1052C0000E010E01FC00FC00F000F000F000E40014
:1052D000E400D800D800AC02AC02A002A002740422
:1052E0007404680468043C063C0630063006040872
:1052F0000408F807F807CC09CC09C009C009940BC9
:10530000940B880B880B5C0D5C0D500D500D240F19
:10531000240F180F180FEC10EC10E010FA0EFA0E14
:10532000EE0EEE0E020D020DF60CF60C0A0B0A0B39
:10533000FE0AFE0AF20A120906090609FA081A0705
:105340000E070E0702070207160516050A050A05CD
:105350001E031E0312031203060326011A011A017B
:105360000E010801FC00FC00F000F000F000E40079
:10537000E400D800D800AC02AC02A002A002940263
:105380007404680468045C043C0630063006240695
:105390002406F807F807EC07EC07C009C009B409B0
:1053A000B409A809880B7C0B7C0B700B500D440DC5
:1053B000440D380D380D0C0F0C0F000F1A0D1A0D7F
:1053C0000E0D0E0D220B220B160B160B0A0B2A09C3
:1053D0001E091E0912091209260726071A071A07AD
:1053E0000E070E0722052205160516050A052A03D3
:1053F0001E031E0312031203260126011A011A01BD
:105400000E010801FC00FC00F000F000F000E400D8
:10541000E400D800D800CC00AC02A002A0029402A4
:105420009402680468045C045C045004300624069A
:10543000240618061806EC07EC07E007E007D40777
:10544000B409A809A8099C099C09700B700B640B8E
:10545000640B580B380D2C0D2C0D200D3A0B3A0B0C
:105460002E0B2E0B220B4209360936092A092A096E
:105470001E093E0732073207260726071A073A0594
:105480002E052E0522052205160536032A032A03BA
:105490001E031E0332013201260126011A011A01E0
:1054A00008010801FC00FC00F000F000F000E4003E
:1054B000E400D800D800CC00AC02A002A002940204
:1054C0009402880268045C045C04500450044404A0
:1054D0002406180618060C060C060006E007D4077A
:1054E000D407C807C807BC079C099009900984091C
:1054F0008409580B580B4C0B4C0B400B5A095A099A
:105500004E094E0942094209560756074A074A07FB
:105510003E073E0732075205460546053A053A055D
:105520002E052E0542034203360336032A032A03BF
:105530003E013E0132013201260126011A01140109
:1055400008010801FC00FC00F000F000F000E4009D
:10555000E400D800D800CC00CC00A002A002940245
:105560009402880288027C025C04500450044404C3
:105570004404380438040C060C0600060006F40542
:10558000F405E805C807BC07BC07B007B007A407C7
:105590008409780978096C096C0960097A077A0727
:1055A0006E076E0762076207560776056A056A0589
:1055B0005E055E0552055205460546055A035A0327
:1055C0004E034E0342034203360336034A014A01A7
:1055D0003E013E013201320126012601140114016F
:1055E00008010801FC00FC00F000F000F000E400FD
:1055F000E400D800D800CC00CC00C000C000940269
:105600009402880288027C027C02700270024404C8
:105610004404380438042C042C0420042004F40529
:10562000F405E805E805DC05DC05D005D005A40790
:10563000A407980798078C078C0780079A059A0596
:105640008E058E0582058205760576056A058A0334
:105650007E037E0372037203660366035A035A03D2
:105660004E034E0362016201560156014A014A018E
:105670003E013E01320132012001200114011401DA
:1056800008010801FC00FC00F000F000F000E4005C
:10569000E400D800D800CC00CC00C000C000B400AA
:1056A000B400880288027C027C02700270026402EC
:1056B0006402580258022C042C0420042004140410
:1056C000140408040804FC03FC03D005D005C40539
:1056D000C405B805B805AC05AC05A005BA03BA0306
:1056E000AE03AE03A203A203960396038A038A03C2
:1056F0007E037E0372039201860186017A017A019C
:105700006E016E0162016201560156014A014A01B1
:10571000380138012C012C01200120011401140151
:1057200008010801FC00FC00F000F000F000E400BB
:10573000E400D800D800CC00CC00C000C000B40009
:10574000B400A800A8009C007C02700270026402F1
:105750006402580258024C024C02400240023402D9
:10576000340228020804FC03FC03F003F003E40302
:10577000E403D803D803CC03CC03C003DA01DA0175
:10578000CE01CE01C201C201B601B601AA01AA0131
:105790009E019E0192019201860186017A017A01A1
:1057A0006E016E015C015C01500150014401440135
:1057B000380138012C012C012001200114011401B1
:1057C00008010801FC00FC00F000F000F000E4001B
:1057D000E400D800D800CC00CC00C000C000B40069
:1057E000B400A800A8009C009C00900090008400D9
:1057F0008400780078004C024C02400240023402DF
:105800003402280228021C021C02100210020402A8
:105810000402F801F801EC01EC01E001D401D4012B
:10582000C801C801BC01BC01B001B001A401A401C0
:10583000980198018C018C01800180017401740130
:10584000680168015C015C015001500144014401A0
:10585000380138012C012C01200120011401140110
:1058600008010801FC00FC00F000F000F000E4007A
:10587000E400D800D800CC00CC00C000C000B400C8
:10588000B400A800A8009C009C0090009000840038
:105890008400780078006C006C00600060005400A8
:1058A0005400480048003C003C0030003000240018
:1058B0002400180018000C000C000000D401D401D2
:1058C000C801C801BC01BC01B001B001A401A40120
:1058D000980198018C018C01800180017401740190
:1058E000680168015C015C01500150014401440100
:1058F000380138012C012C01200120011401140170
:1059000008010801FC00FC00F000F000F000E400D9
:10591000E400D800D800CC00CC00C000C000B40027
:10592000B400A800A8009C009C0090009000840097
:105930008400780078006C006C0060006000540007
:105940005400480048003C003C0030003000240077
:105950002400180018000C000C000000D401D40131
:10596000C801C801BC01BC01B001B001A401A4017F
:10597000980198018C018C018001800174017401EF
:10598000680168015C015C0150015001440144015F
:10599000380138012C012C012001200114011401CF
:1059A00008010801FC00FC00F000F000F000E40039
:1059B000E400D800D800CC00CC00C000C000B40087
:1059C000B400A800A8009C009C00900090008400F7
:1059D0008400780078006C006C0060006000540067
:1059E0005400480048003C003C00300030002400D7
:1059F0002400180018000C000C000000B403B403CD
:105A0000A803A8039C039C039003900384038403CE
:105A1000780378036C036C0360036003540354033E
:105A2000480348035C015C015001500144014401FA
:105A3000380138012C012C0120012001140114012E
:105A400008010801FC00FC00F000F000F000E40098
:105A5000E400D800D800CC00CC00C000C000B400E6
:105A6000B400A800A8009C009C0090009000840056
:105A700084007800780072007200660066005A00A8
:105A80005A004E004E0042004200360036002A0006
:105A90002A001E001E001200120006009405940544
:105AA000880588057C057C0570057005640564051E
:105AB000580558054C056C036003600354035403F8
:105AC000480348033C033C0330033003240324030E
:105AD000380138012C012C0120012001140114018E
