:020000040040BA
:10000000A8080020510140004D0140004D01400072
:100010004D0140004D0140004D0140000000000036
:100020000000000000000000000000004D01400042
:100030004D014000000000004D0140004D01400016
:100040004D0140004D0140004D0140004D01400078
:100050004D0140004D0140004D014000ED074000C2
:10006000000000004D0140004D0140000000000074
:100070004D01400000000000290840004D014000F3
:100080004D0140004D0140004D0140004D01400038
:100090004D014000950340004D0140004D014000DE
:1000A0000000000000000000000000000000000050
:1000B00000000000000000004D0140004D01400024
:1000C0004D0140004D0140004D0140004D014000F8
:1000D0006D0340004D014000000000004D01400054
:1000E0000000000000000000000000000000000010
:1000F0004D0140004D01400010B5054C237833B947
:10010000044B13B10448AFF300800123237010BDEA
:100110006804002000000000840B400008B5064B76
:100120001BB106480649AFF300800648036813B1C7
:10013000054B03B1984708BD00000000840B400048
:100140006C040020840B400000000000FEE700BFAC
:1001500012491348814208B509D0124B984206D281
:10016000C243134423F0030204320F4B98470F4855
:100170000F4B984207D2C243134423F003020432C8
:1001800000210C4B98470C490C4A0D4B21F07F0184
:10019000916098470B4B9847FEE700BF840B4000E7
:1001A0000000002068040020990840006804002036
:1001B000A4040020CD0940000000400000ED00E054
:1001C000490840004D024000194B1A4A4FF00421E3
:1001D0001960136AD80104D4174B1362936ED907C0
:1001E000FCD51449154B0B628B6E124ADB03FBD511
:1001F000136B23F0030343F001031363936E0D4964
:100200001807FBD50E4B8B628B6E0A4A9B07FBD5FA
:100210001123136311468B6E064A1807FBD5122370
:100220001363936E1B07FCD5064B074A1A60704791
:10023000000A0E4000040E40090837000908370183
:10024000013F0F200000002000D8B8052DE9F04F35
:10025000384B394F394CDFF8F8B0DFF8F880DFF869
:10026000F890DFF8F8A083B09847DFF8F4C034487E
:10027000344BDFF8F0E0344A34494FF48055CCF881
:1002800010504FF48066C7F800E003604FF4005E42
:100290004FF480401E6340F2FF375D631863C3F87C
:1002A00030E0C3F810B04FF0F00BC3F8A070C4F802
:1002B00014B14FF0FF0BCCF810604FF40014C9F8E4
:1002C0000080C8F810B04FF00209C8F8A0B04FF095
:1002D000FF38CCF81040DFF890B0CAF800204FF09B
:1002E000100CC2F800904FF0050AC2F82880176A77
:1002F00050604FF08009C2F824C04FF00008C2F8E7
:100300001CB0C2F800A040F2FF32C1F88040C1F832
:100310008090C1F88000C1F884C0C1F8804181F8A4
:1003200015830C601E635D631863C3F830E05A6385
:10033000FEE700BFC90140009804002000020E4003
:100340009004002000140E400000094000E100E08D
:10035000FF7F000100100E40A00400209404002044
:1003600000040E40007C00013D123D00074B1B685D
:10037000DA69D20708D5064A1078013000F00F007C
:1003800000211070C3F80812704700BF040000205D
:10039000840400200F4A104B1068104A1B68104953
:1003A000006A2DE9F0070020156848604FF40052FC
:1003B0004FF480445C634FF479795A6340F25628D5
:1003C0004FF400624FF42E7C461C0021012440F2C1
:1003D000FF3708E09404002090040020A0040020CF
:1003E000840400200024884208BF314640EA011AF4
:1003F0005A63C3F838901A63C5F838A04CB100BFEF
:1004000000BF00BF00BF00BF00BF00BF00BF00BFF4
:1004100000BF00BF00BF00BF00BF00BF00BF00BFE4
:1004200000BF00BF00BF00BF00BF00BF00BF00BFD4
:1004300000BF00BF00BF00BF00BF00BF00BF00BFC4
:1004400000BF00BF00BF00BF00BF00BF00BF00BFB4
:1004500000BF00BF00BF00BF00BF00BF00BF00BFA4
:1004600000BF00BF00BF00BF00BF00BF00BF00BF94
:1004700000BF00BF00BF00BF00BF00BF00BF00BF84
:1004800000BF00BF00BF00BF00BF00BF00BF00BF74
:1004900000BF00BF00BF00BF00BF00BF00BF00BF64
:1004A00000BF00BF00BF00BF00BF00BF00BF00BF54
:1004B00000BF00BF00BF00BF00BF00BF00BF00BF44
:1004C00000BF00BF00BF00BF00BF00BF00BF00BF34
:1004D00000BF00BF00BF00BF00BF00BF00BF00BF24
:1004E00000BF00BF00BF00BF00BF00BF00BF00BF14
:1004F00000BF00BF00BF00BF00BF00BF00BF00BF04
:1005000000BF00BF00BF00BF00BF00BF00BF00BFF3
:1005100000BF00BF00BF00BF00BF00BF00BF00BFE3
:1005200000BF00BF00BF00BF00BF00BF00BF00BFD3
:1005300000BF00BF00BF00BF00BF00BF00BF4C1C1A
:10054000A04208BF8C1C40EA04115A63C3F83880EB
:100550001A63A96300BF00BF00BF00BF00BF00BF98
:1005600000BF00BF00BF00BF00BF00BF00BF00BF93
:1005700000BF00BF00BF00BF00BF00BF00BF00BF83
:1005800000BF00BF00BF00BF00BF00BF00BF00BF73
:1005900000BF00BF00BF00BF00BF00BF00BF00BF63
:1005A00000BF00BF00BF00BF00BF00BF00BF00BF53
:1005B00000BF00BF00BF00BF00BF00BF00BF00BF43
:1005C00000BF00BF00BF00BF00BF00BF00BF00BF33
:1005D00000BF00BF00BF00BF00BF00BF00BF00BF23
:1005E00000BF00BF00BF00BF00BF00BF00BF00BF13
:1005F00000BF00BF00BF00BF00BF00BF00BF00BF03
:1006000000BF00BF00BF00BF00BF00BF00BF00BFF2
:1006100000BF00BF00BF00BF00BF00BF00BF00BFE2
:1006200000BF00BF00BF00BF00BF00BF00BF00BFD2
:1006300000BF00BF00BF00BF00BF00BF00BF00BFC2
:1006400000BF00BF00BF00BF00BF00BF00BF00BFB2
:1006500000BF00BF00BF00BF00BF00BF00BF00BFA2
:1006600000BF00BF00BF00BF00BF00BF00BF00BF92
:1006700000BF00BF00BF00BF00BF00BF00BF00BF82
:10068000611C884208BFA11C40EA01145A63C3F8E8
:1006900038C01A63AC6300BF00BF00BF00BF00BF1B
:1006A00000BF00BF00BF00BF00BF00BF00BF00BF52
:1006B00000BF00BF00BF00BF00BF00BF00BF00BF42
:1006C00000BF00BF00BF00BF00BF00BF00BF00BF32
:1006D00000BF00BF00BF00BF00BF00BF00BF00BF22
:1006E00000BF00BF00BF00BF00BF00BF00BF00BF12
:1006F00000BF00BF00BF00BF00BF00BF00BF00BF02
:1007000000BF00BF00BF00BF00BF00BF00BF00BFF1
:1007100000BF00BF00BF00BF00BF00BF00BF00BFE1
:1007200000BF00BF00BF00BF00BF00BF00BF00BFD1
:1007300000BF00BF00BF00BF00BF00BF00BF00BFC1
:1007400000BF00BF00BF00BF00BF00BF00BF00BFB1
:1007500000BF00BF00BF00BF00BF00BF00BF00BFA1
:1007600000BF00BF00BF00BF00BF00BF00BF00BF91
:1007700000BF00BF00BF00BF00BF00BF00BF00BF81
:1007800000BF00BF00BF00BF00BF00BF00BF00BF71
:1007900000BF00BF00BF00BF00BF00BF00BF00BF61
:1007A00000BF00BF00BF00BF00BF00BF00BF00BF51
:1007B00000BF00BF00BF00BF00BF00BF00BF00BF41
:1007C00000BF01310F295A635F631A637FF70AAED6
:1007D000022E01D03046F7E54FF480414FF400522D
:1007E0001963BDE8F0071A63704700BF0B4A5369ED
:1007F000D90430B410D50A4D1446691E05F1C7005E
:1008000053699B07FCD511F8013FE3618142F7D1A1
:10081000044BC8221D605A6030BC704700060E4071
:100820000800002000070E40044B5B691B0504D53F
:10083000034B044A9A601422DA60704700000A40B1
:1008400000010A402800002070B50F4E0F4D761BA6
:10085000B61007D0043D0024013455F8043F9847F2
:10086000A642F9D10A4E0B4D761B00F079F9B6106D
:1008700008D0043D0024013455F8043F9847A642AF
:10088000F9D170BD70BD00BF6C0B40006C0B400017
:10089000740B40006C0B4000844641EA000313F0E7
:1008A00003036DD1403A41D351F8043B40F8043B77
:1008B00051F8043B40F8043B51F8043B40F8043B3A
:1008C00051F8043B40F8043B51F8043B40F8043B2A
:1008D00051F8043B40F8043B51F8043B40F8043B1A
:1008E00051F8043B40F8043B51F8043B40F8043B0A
:1008F00051F8043B40F8043B51F8043B40F8043BFA
:1009000051F8043B40F8043B51F8043B40F8043BE9
:1009100051F8043B40F8043B51F8043B40F8043BD9
:1009200051F8043B40F8043B403ABDD2303211D379
:1009300051F8043B40F8043B51F8043B40F8043BB9
:1009400051F8043B40F8043B51F8043B40F8043BA9
:10095000103AEDD20C3205D351F8043B40F8043B79
:10096000043AF9D2043208D0D2071CBF11F8013B77
:1009700000F8013B01D30B8803806046704700BF3D
:10098000082A13D38B078DD010F003038AD0C3F14C
:100990000403D21ADB071CBF11F8013B00F8013B2E
:1009A00080D331F8023B20F8023B7BE7043AD9D3ED
:1009B000013A11F8013B00F8013BF9D20B780370C2
:1009C0004B7843708B78837060467047F0B484072F
:1009D00043D0541E002A3ED0CDB2034603E0621E2F
:1009E000002C38D0144603F8015B9A07F7D1032C8A
:1009F0002AD9CDB245EA05250F2C45EA054515D97A
:100A0000A4F110073F0903F1100606EB07161A467A
:100A1000156055609560D5601032B242F8D104F08F
:100A20000F040137032C03EB07130DD91E46224692
:100A3000043A032A46F8045BFAD8221F22F0030284
:100A40000432134404F003042CB1C9B21C4403F86B
:100A5000011BA342FBD1F0BC704714460346C6E716
:100A6000024B13B1024800F005B8704700000000C7
:100A7000810A4000014600200246034600F018B8F3
:100A800038B5094D094C641BA41018BF05EB84054B
:100A900005D0013C55F8043D9847002CF9D1BDE83C
:100AA000384000F067B800BF800B4000840B400066
:100AB000F0B5274C2668D6F8484185B00746002C8B
:100AC00041D065681F2D1EDD224818B94FF0FF3058
:100AD00005B0F0BD4FF4C870039102920193AFF3DB
:100AE00000800399029A019B04460028EED0D6F8B4
:100AF00048512560002060600546C6F84841C4F8AA
:100B00008801C4F88C013FB9AB1C00200135656039
:100B100044F8231005B0F0BD04EB85004FF0010C44
:100B2000C0F88820D4F888610CFA05F21643022F29
:100B3000C4F88861C0F80831E6D1D4F88C311A4382
:100B4000C4F88C21E0E706F5A674C6F84841B8E77A
:100B50005C0B40000000000043000000400000204B
:100B6000F8B500BFF8BC08BC9E467047610A40005B
:100B70001D014000F8B500BFF8BC08BC9E46704798
:040B8000F900400038
:100B840000093D0000000040952B15952B15952B71
:100B940015952B15952B15952B15952B15952B1513
:100BA400952B15952B150000370000000000000060
:100BB4000000000000000000000000000000000031
:100BC400000000002C03002094030020FC030020FC
:100BD4000000000000000000000000000000000011
:100BE4000000000000000000000000000000000001
:100BF40000000000580B400000000000000000004E
:100C040000000000000000000000000000000000E0
:100C140000000000000000000000000000000000D0
:100C240000000000000000000000000000000000C0
:100C340000000000000000000000000000000000B0
:100C440000000000000000000000000000000000A0
:100C54000000000000000000000000000000000090
:100C6400000000000000000001000000000000007F
:100C74000E33CDAB34126DE6ECDE05000B00000044
:100C84000000000000000000000000000000000060
:100C94000000000000000000000000000000000050
:100CA4000000000000000000000000000000000040
:100CB4000000000000000000000000000000000030
:0400000500400000B7
:00000001FF
