S01700004763634170706C69636174696F6E352E7372656357
S21440000050820020510140004D0140004D0140000B
S2144000104D0140004D0140004D01400000000000F1
S2144000200000000000000000000000004D014000FD
S2144000304D014000000000004D0140004D014000D1
S2144000404D0140004D0140004D0140004D01400033
S2144000504D0140004D0140004D014000610440000C
S214400060000000004D0140004D014000000000002F
S2144000704D01400000000000990440004D01400042
S2144000804D0140004D0140004D0140004D014000F3
S2144000904D014000290440004D0140004D01400004
S2144000A0000000000000000000000000000000000B
S2144000B000000000000000004D0140004D014000DF
S2144000C04D0140004D0140004D0140004D014000B3
S2144000D04D0140004D014000000000004D01400031
S2144000E000000000000000000000000000000000CB
S2144000F04D0140004D01400010B5054C237833B902
S214400100044B13B10448AFF300800123237010BDA5
S214400110587D0020000000002C06400008B5064B25
S2144001201BB106480649AFF300800648036813B182
S214400130054B03B1984708BD000000002C06400060
S2144001405C7D00202C06400000000000FEE700001A
S214400150114B124A934210B51C4601D0002301E0D1
S2144001600F4B07E00F49D0188842F9D2E158D150DA
S2144001700433F7E70C4A934203D2002243F8042B99
S214400180F8E70A4A0A4B22F07F029A60094B9847E2
S214400190094B9847FEE700BF2C06400000000020B1
S2144001A0587D0020587D0020507E002000004000F2
S2144001B000ED00E0B9044000450240001A4B4FF005
S2144001C004221A60A3F5C0631A6AD20102D5174A00
S2144001D01A6205E0164A1A629A6ED007FCD5F6E710
S2144001E0996E144AC903FBD5116B21F0030141F007
S2144001F0010111639A6E1207FCD50E4A0E499162B0
S2144002009A6E9007FCD50B4A112111639A6E11071E
S214400210FCD5084A122111639A6E1207FCD5074B8B
S214400220074A1A60704700BF000A0E4009083701A7
S2144002300908370000040E40013F0B200000002054
S21440024000D8B8052DE9F047694B6A4CDFF8C8A1DD
S2144002509847694A694B6A494FF48059C2F81090EA
S2144002601C604FF080730B60664923614FF40017A3
S214400270654B17614FF0FF3E0B6002211960C3F8D3
S21440028028E0186A10254FF4804041F24F26586007
S2144002905D62DE6105261E6003F5A12303F5C0639B
S2144002A04FF4C0665E605E64D3F870C01E6F0CEAA2
S2144002B0060626F4C0661E67D3F874C05E6F0CEA66
S2144002C0060626F4C066DFF854C15E67A3F50063F1
S2144002D080261661CCF800304FF0AC0CC3F800C056
S2144002E040F202284FF4006C1962C3F804C0C3F809
S2144002F020814FF05008C3F80080DFF82481CAF808
S21440030000804FF0C808CAF8048040F20118CAF8C6
S2144003102080C3F80890C3F8041AC3F8441AD3F8E8
S21440032070AAD3F8709A0AEA090929F4C069C3F892
S214400330709AD3F874AAD3F8749A0AEA090929F489
S214400340C069C3F8749A03F52063A3F5822310614D
S2144003502E4AC3F8E4204FF0880900225A605A62B9
S2144003609A62C3F800904FF02409C3F800904FF407
S2144003708079C3F800904FF40029C3F800904FF4FA
S2144003800039C3F800901962596841F40C6159600D
S2144003904021C3F80CE019601D49DFF888E01D6075
S2144003A0C1F82080C1F808E04FF0140EC1F80CE008
S2144003B0C3F808C0174B2021C3F88070C3F880608C
S2144003C0C3F88000C3F8807183F81513C3F88061C2
S2144003D083F80753C3F8800183F80E234FF08073E9
S2144003E012B923630122F9E763630022F6E700BFF0
S2144003F0BD01400000140E4000040E40787D0020F1
S214400400807D00207C7D002000000940004153553F
S21440041000010A4000E100E000070E404C7E00204C
S214400420847D002004000020094B0A4A1B6812689D
S2144004301B6A094B1978D1F1010138BF00211970A8
S214400440064B1B6809B9536370471363704700BF78
S2144004507C7D0020787D0020747D0020807D0020FB
S2144004600B4B5A6912F4805F10B51C460ED0002321
S21440047062699207FCD50749054A585CD06101334A
S214400480C82BF5D1C2F80011C2F8043110BD00BF28
S21440049000060E40847D0020044B5B691B0504D596
S2144004A0034B044A9A601422DA60704700000A4000
S2144004B000010A400400002070B50F4E0F4D761B19
S2144004C0B61007D0043D0024013455F8043F984741
S2144004D0A642F9D10A4E0B4D761B00F095F8B610A1
S2144004E008D0043D0024013455F8043F9847A642FE
S2144004F0F9D170BD70BD00BF140640001406400020
S2144005001C06400014064000024B13B1024800F09F
S21440051005B870470000000029054000014600204D
S2144005200246034600F018B838B5094D094C641B1E
S214400530A41018BF05EB840505D0013C55F8043DD2
S2144005409847002CF9D1BDE8384000F067B800BFA6
S214400550280640002C064000F0B5274C2668D6F802
S214400560484185B00746002C41D065681F2D1EDDEA
S214400570224818B94FF0FF3005B0F0BD4FF4C870B0
S214400580039102920193AFF300800399029A019B74
S21440059004460028EED0D6F848512560002060601A
S2144005A00546C6F84841C4F88801C4F88C013FB9EE
S2144005B0AB1C00200135656044F8231005B0F0BD43
S2144005C004EB85004FF0010CC0F88820D4F8886111
S2144005D00CFA05F21643022FC4F88861C0F80831B9
S2144005E0E6D1D4F88C311A43C4F88C21E0E706F5FE
S2144005F0A674C6F84841B8E704064000000000006C
S2144006004300000030790020F8B500BFF8BC08BCB5
S2144006109E467047090540001D014000F8B500BFE2
S210400620F8BC08BC9E467047F90040003D
S21440062C00093D00370000000000000000000000FC
S21440063C0000000000000000050505050505050541
S21440064C0505050505050500000000000000000036
S21440065C0000000000000000000000000000000049
S21440066C0000000000000000000000000000000039
S21440067C0000000000000000000000000000000029
S21440068C0000000000000000000000000000000019
S214407F5C000000001C7C0020847C0020EC7C002070
S214407F6C00000000000000000000000000000000C0
S214407F7C00000000000000000000000000000000B0
S214407F8C000000000006400000000000000000005A
S214407F9C0000000000000000000000000000000090
S214407FAC0000000000000000000000000000000080
S214407FBC0000000000000000000000000000000070
S214407FCC0000000000000000000000000000000060
S214407FDC0000000000000000000000000000000050
S214407FEC0000000000000000000000000000000040
S214407FFC000000000000000001000000000000002F
S21440800C0E33CDAB34126DE6ECDE05000B000000F3
S21440801C000000000000000000000000000000000F
S21440802C00000000000000000000000000000000FF
S21440803C00000000000000000000000000000000EF
S21440804C00000000000000000000000000000000DF
S804400000BB
