S01300006D6F746F722D33626C64632E73726563EB
S113000019C033C032C031C030C02FC02EC02DC083
S11300102CC02BC02AC059C028C027C026C025C068
S113002024C023C022C021C020C01FC01EC01DC0C8
S11300301CC01BC011241FBECFEFD2E0DEBFCDBF5A
S113004011E0A0E0B1E0E6E8F7E002C005900D920F
S1130050A031B107D9F721E0A0E1B1E001C01D92C0
S1130060A531B207E1F702D08CC3CACFE1E8F0E0D2
S1130070808189608083EFE6F0E080818260808304
S11300808FEF9FEF909389008093880081EA84BD6D
S113009085B5816085BD84E187BD8FEF88BD8CEF18
S11300A08AB98CE78AB987E084B9EAE7F0E080810D
S11300B08760808380E480937C0080818068808373
S11300C08081806480837894FFCF1F920F920FB653
S11300D00F921124CF92DF92EF92FF922F933F93CE
S11300E04F935F936F937F938F939F93AF93BF933C
S11300F0EF93FF938091100190911101843F21E0CF
S1130100920724F5019690931101809310018FEFCB
S11301109FEF9093890080938800E0911401F0E0B0
S1130120EC5FFE4F80818BB9E0911401F0E0E65F53
S1130130FE4F808185B98091100190911101833F18
S1130140914009F08DC084E687BD8AC08091120178
S11301509091130101966AE070E0AED2909313017E
S113016080931201892B09F07BC0E0911401F0E027
S1130170EC5FFE4F80818BB9E0911401F0E0E65F03
S1130180FE4F808185B9809114018F5F9BEA899F1E
S1130190912D112496959695292F220F920F990F40
S11301A0891B80931401C0900001D0900101E0905C
S11301B00201F0900301A701960160E070E08AE774
S11301C094E4C8D02FD1882777FD8095982F5DD1EE
S11301D02FE832EC45EF5CE3E8D19B01AC01C701A9
S11301E0B60154D060930001709301018093020121
S11301F09093030117D19B01220F331F660F771FC2
S1130200660F771F660F771F260F371F442737FDAA
S11302104095542F60E074E284EF90E060D2309314
S113022089002093880020E030E040E154E46091AC
S11302300001709101018091020190910301B1D1FB
S1130240181674F480E090E0A0E1B4E48093000117
S113025090930101A0930201B093030186E487BD4A
S1130260FF91EF91BF91AF919F918F917F916F918A
S11302705F914F913F912F91FF90EF90DF90CF903E
S11302800F900FBE0F901F9018955058BB27AA27A8
S11302900ED04DC13ED130F043D120F031F49F3F18
S11302A011F41EF433C10EF4E095E7FB29C1E92FE4
S11302B04FD180F3BA17620773078407950718F0C4
S11302C071F49EF567C10EF4E0950B2EBA2FA02DA4
S11302D00B01B90190010C01CA01A0011124FF27EF
S11302E0591B99F0593F50F4503E68F11A16F040EA
S11302F0A22F232F342F4427585FF3CF46953795E9
S11303002795A795F0405395C9F77EF41F16BA0BAD
S1130310620B730B840BBAF09150A1F0FF0FBB1F5B
S1130320661F771F881FC2F70EC0BA0F621F731FA4
S1130330841F48F4879577956795B795F7959E3F01
S113034008F0B3CF9395880F08F09927EE0F97958F
S1130350879508950CD0EBC0E3D040F0DAD030F0AC
S113036021F45F3F19F0CCC0511115C1CFC0F0D0BA
S113037098F39923C9F35523B1F3951B550BBB2768
S1130380AA2762177307840738F09F5F5F4F220F15
S1130390331F441FAA1FA9F333D00E2E3AF0E0E80E
S11303A030D091505040E695001CCAF729D0FE2F5A
S11303B027D0660F771F881FBB1F261737074807EC
S11303C0AB07B0E809F0BB0B802DBF01FF279358A2
S11303D05F4F2AF09E3F510568F092C0DCC05F3F3A
S11303E0ECF3983EDCF3869577956795B795F7958A
S11303F09F5FC9F7880F911D9695879597F9089582
S1130400E1E0660F771F881FBB1F6217730784071D
S1130410BA0720F0621B730B840BBA0BEE1F88F72C
S1130420E095089504D06894B111B5C0089598D0AA
S113043088F09F5790F0B92F9927B751A0F0D1F0C9
S1130440660F771F881F991F1AF0BA95C9F712C053
S1130450B13081F09FD0B1E008959CC0672F782F10
S11304608827B85F39F0B93FCCF3869577956795BF
S1130470B395D9F73EF490958095709561957F4F2B
S11304808F4F9F4F0895E89409C097FB3EF49095D1
S11304908095709561957F4F8F4F9F4F9923A9F059
S11304A0F92F96E9BB279395F695879577956795E8
S11304B0B795F111F8CFFAF4BB0F11F460FF1BC02C
S11304C06F5F7F4F8F4F9F4F16C0882311F096E9BF
S11304D011C0772321F09EE8872F762F05C066236D
S11304E071F096E8862F70E060E02AF09A95660F26
S11304F0771F881FDAF7880F9695879597F90895DF
S113050097F99F6780E870E060E008959FEF80ECC2
S1130510089500240A941616170618060906089565
S113052000240A9412161306140605060895092ECB
S11305300394000C11F4882352F0BB0F40F4BF2B3A
S113054011F460FF04C06F5F7F4F8F4F9F4F08957A
S113055057FD9058440F551F59F05F3F71F0479570
S1130560880F97FB991F61F09F3F79F08795089555
S1130570121613061406551FF2CF4695F1DF08C074
S1130580161617061806991FF1CF86957105610591
S113059008940895E894BB2766277727CB0197F939
S11305A0089566D008F48FEF08950BD0C0CFB1DF63
S11305B028F0B6DF18F0952309F0A2CFA7CF1124B5
S11305C0EACFC6DFA0F3959FD1F3950F50E0551FF6
S11305D0629FF001729FBB27F00DB11D639FAA2794
S11305E0F00DB11DAA1F649F6627B00DA11D661FE3
S11305F0829F2227B00DA11D621F739FB00DA11D04
S1130600621F839FA00D611D221F749F3327A00DBD
S1130610611D231F849F600D211D822F762F6A2F59
S113062011249F5750408AF0E1F088234AF0EE0FDE
S1130630FF1FBB1F661F771F881F91505040A9F7EB
S11306409E3F510570F05CCFA6CF5F3FECF3983E20
S1130650DCF3869577956795B795F795E7959F5F52
S1130660C1F7FE2B880F911D9695879597F90895EC
S1130670990F0008550FAA0BE0E8FEEF16161706AF
S1130680E807F907C0F012161306E407F50798F017
S1130690621B730B840B950B39F40A2661F0232B30
S11306A0242B252B21F408950A2609F4A140A695AC
S11306B08FEF811D811D089597FB072E16F400947A
S11306C006D077FD08D027D007FC05D03EF49095DE
S11306D081959F4F0895709561957F4F0895052EDC
S11306E097FB16F400940FD057FD05D028D007FCD3
S11306F002D046F408C050954095309521953F4F5F
S11307004F4F5F4F089590958095709561957F4FF9
S11307108F4F9F4F0895AA1BBB1B51E107C0AA1F0F
S1130720BB1FA617B70710F0A61BB70B881F991F8E
S11307305A95A9F780959095BC01CD010895A1E241
S11307401A2EAA1BBB1BFD010DC0AA1FBB1FEE1F47
S1130750FF1FA217B307E407F50720F0A21BB30B92
S1130760E40BF50B661F771F881F991F1A9469F70E
S113077060957095809590959B01AC01BD01CF016A
S10907800895F894FFCF78
S11307860000F0410C0C18181414010202040401B0
S9030000FC
